{
  "_format": "hh-sol-artifact-1",
  "contractName": "PureSuperTokenDeployer",
  "sourceName": "contracts/utils/PureSuperTokenDeployer.sol",
  "abi": [
    {
      "inputs": [
        {
          "internalType": "address",
          "name": "factory",
          "type": "address"
        }
      ],
      "stateMutability": "nonpayable",
      "type": "constructor"
    },
    {
      "anonymous": false,
      "inputs": [
        {
          "indexed": false,
          "internalType": "address",
          "name": "newSuperToken",
          "type": "address"
        }
      ],
      "name": "SuperTokenDeployed",
      "type": "event"
    },
    {
      "inputs": [
        {
          "internalType": "string",
          "name": "name",
          "type": "string"
        },
        {
          "internalType": "string",
          "name": "symbol",
          "type": "string"
        },
        {
          "internalType": "address",
          "name": "receiver",
          "type": "address"
        },
        {
          "internalType": "uint256",
          "name": "initialSupply",
          "type": "uint256"
        }
      ],
      "name": "deploySuperToken",
      "outputs": [
        {
          "internalType": "address",
          "name": "newSuperToken",
          "type": "address"
        }
      ],
      "stateMutability": "nonpayable",
      "type": "function"
    }
  ],
  "bytecode": "0x60a060405234801561001057600080fd5b50604051611044380380611044833981810160405281019061003291906100cf565b8073ffffffffffffffffffffffffffffffffffffffff1660808173ffffffffffffffffffffffffffffffffffffffff1681525050506100fc565b600080fd5b600073ffffffffffffffffffffffffffffffffffffffff82169050919050565b600061009c82610071565b9050919050565b6100ac81610091565b81146100b757600080fd5b50565b6000815190506100c9816100a3565b92915050565b6000602082840312156100e5576100e461006c565b5b60006100f3848285016100ba565b91505092915050565b608051610f2e610116600039600060b50152610f2e6000f3fe608060405234801561001057600080fd5b506004361061002b5760003560e01c8063df2d352414610030575b600080fd5b61004a6004803603810190610045919061039f565b610060565b604051610057919061044d565b60405180910390f35b600061009585338660405160200161007a93929190610521565b60405160208183030381529060405280519060200120610169565b90508073ffffffffffffffffffffffffffffffffffffffff166375b30be67f0000000000000000000000000000000000000000000000000000000000000000878787876040518663ffffffff1660e01b81526004016100f89594939291906105af565b600060405180830381600087803b15801561011257600080fd5b505af1158015610126573d6000803e3d6000fd5b505050507f382cfdea56c56cd8fd407047f83f1a43eb146098a1ba8f52b5b1ae66727eaa3781604051610159919061044d565b60405180910390a1949350505050565b6000806040518060200161017c906101a4565b6020820181038252601f19601f820116604052509050828151602083016000f5915050919050565b6108e88061061183390190565b6000604051905090565b600080fd5b600080fd5b600080fd5b600080fd5b6000601f19601f8301169050919050565b7f4e487b7100000000000000000000000000000000000000000000000000000000600052604160045260246000fd5b610218826101cf565b810181811067ffffffffffffffff82111715610237576102366101e0565b5b80604052505050565b600061024a6101b1565b9050610256828261020f565b919050565b600067ffffffffffffffff821115610276576102756101e0565b5b61027f826101cf565b9050602081019050919050565b82818337600083830152505050565b60006102ae6102a98461025b565b610240565b9050828152602081018484840111156102ca576102c96101ca565b5b6102d584828561028c565b509392505050565b600082601f8301126102f2576102f16101c5565b5b813561030284826020860161029b565b91505092915050565b600073ffffffffffffffffffffffffffffffffffffffff82169050919050565b60006103368261030b565b9050919050565b6103468161032b565b811461035157600080fd5b50565b6000813590506103638161033d565b92915050565b6000819050919050565b61037c81610369565b811461038757600080fd5b50565b60008135905061039981610373565b92915050565b600080600080608085870312156103b9576103b86101bb565b5b600085013567ffffffffffffffff8111156103d7576103d66101c0565b5b6103e3878288016102dd565b945050602085013567ffffffffffffffff811115610404576104036101c0565b5b610410878288016102dd565b935050604061042187828801610354565b92505060606104328782880161038a565b91505092959194509250565b6104478161032b565b82525050565b6000602082019050610462600083018461043e565b92915050565b600081519050919050565b600081905092915050565b60005b8381101561049c578082015181840152602081019050610481565b60008484015250505050565b60006104b382610468565b6104bd8185610473565b93506104cd81856020860161047e565b80840191505092915050565b60008160601b9050919050565b60006104f1826104d9565b9050919050565b6000610503826104e6565b9050919050565b61051b6105168261032b565b6104f8565b82525050565b600061052d82866104a8565b9150610539828561050a565b60148201915061054982846104a8565b9150819050949350505050565b600082825260208201905092915050565b600061057282610468565b61057c8185610556565b935061058c81856020860161047e565b610595816101cf565b840191505092915050565b6105a981610369565b82525050565b600060a0820190506105c4600083018861043e565b81810360208301526105d68187610567565b905081810360408301526105ea8186610567565b90506105f9606083018561043e565b61060660808301846105a0565b969550505050505056fe608060405234801561001057600080fd5b506108c8806100206000396000f3fe60806040526004361061002d5760003560e01c80634a0687ef1461004657806375b30be61461006f5761003c565b3661003c5761003a610098565b005b610044610098565b005b34801561005257600080fd5b5061006d600480360381019061006891906103f1565b6100b2565b005b34801561007b57600080fd5b506100966004803603810190610091919061059a565b6101ab565b005b6100a06101d7565b6100b06100ab6101d9565b610202565b565b600073ffffffffffffffffffffffffffffffffffffffff168173ffffffffffffffffffffffffffffffffffffffff1603610118576040517fd92e233d00000000000000000000000000000000000000000000000000000000815260040160405180910390fd5b600073ffffffffffffffffffffffffffffffffffffffff166101386101d9565b73ffffffffffffffffffffffffffffffffffffffff1614610185576040517f5daa87a000000000000000000000000000000000000000000000000000000000815260040160405180910390fd5b807f360894a13ba1a3210667c828492db98dca3e2076cc3735a920a3ca505d382bbc5550565b6101b6858585610228565b6101d082826040518060200160405280600081525061030b565b5050505050565b565b60007f360894a13ba1a3210667c828492db98dca3e2076cc3735a920a3ca505d382bbc54905090565b3660008037600080366000845af43d6000803e8060008114610223573d6000f35b3d6000fd5b8273ffffffffffffffffffffffffffffffffffffffff1663d412d344306040518263ffffffff1660e01b8152600401610261919061065c565b600060405180830381600087803b15801561027b57600080fd5b505af115801561028f573d6000803e3d6000fd5b505050503073ffffffffffffffffffffffffffffffffffffffff166342fe09806000601285856040518563ffffffff1660e01b81526004016102d4949392919061079d565b600060405180830381600087803b1580156102ee57600080fd5b505af1158015610302573d6000803e3d6000fd5b50505050505050565b3073ffffffffffffffffffffffffffffffffffffffff1663c68d42838484846040518463ffffffff1660e01b815260040161034893929190610854565b600060405180830381600087803b15801561036257600080fd5b505af1158015610376573d6000803e3d6000fd5b50505050505050565b6000604051905090565b600080fd5b600080fd5b600073ffffffffffffffffffffffffffffffffffffffff82169050919050565b60006103be82610393565b9050919050565b6103ce816103b3565b81146103d957600080fd5b50565b6000813590506103eb816103c5565b92915050565b60006020828403121561040757610406610389565b5b6000610415848285016103dc565b91505092915050565b600080fd5b600080fd5b6000601f19601f8301169050919050565b7f4e487b7100000000000000000000000000000000000000000000000000000000600052604160045260246000fd5b61047182610428565b810181811067ffffffffffffffff821117156104905761048f610439565b5b80604052505050565b60006104a361037f565b90506104af8282610468565b919050565b600067ffffffffffffffff8211156104cf576104ce610439565b5b6104d882610428565b9050602081019050919050565b82818337600083830152505050565b6000610507610502846104b4565b610499565b90508281526020810184848401111561052357610522610423565b5b61052e8482856104e5565b509392505050565b600082601f83011261054b5761054a61041e565b5b813561055b8482602086016104f4565b91505092915050565b6000819050919050565b61057781610564565b811461058257600080fd5b50565b6000813590506105948161056e565b92915050565b600080600080600060a086880312156105b6576105b5610389565b5b60006105c4888289016103dc565b955050602086013567ffffffffffffffff8111156105e5576105e461038e565b5b6105f188828901610536565b945050604086013567ffffffffffffffff8111156106125761061161038e565b5b61061e88828901610536565b935050606061062f888289016103dc565b925050608061064088828901610585565b9150509295509295909350565b610656816103b3565b82525050565b6000602082019050610671600083018461064d565b92915050565b6000819050919050565b600061069c61069761069284610393565b610677565b610393565b9050919050565b60006106ae82610681565b9050919050565b60006106c0826106a3565b9050919050565b6106d0816106b5565b82525050565b6000819050919050565b600060ff82169050919050565b60006107086107036106fe846106d6565b610677565b6106e0565b9050919050565b610718816106ed565b82525050565b600081519050919050565b600082825260208201905092915050565b60005b8381101561075857808201518184015260208101905061073d565b60008484015250505050565b600061076f8261071e565b6107798185610729565b935061078981856020860161073a565b61079281610428565b840191505092915050565b60006080820190506107b260008301876106c7565b6107bf602083018661070f565b81810360408301526107d18185610764565b905081810360608301526107e58184610764565b905095945050505050565b6107f981610564565b82525050565b600081519050919050565b600082825260208201905092915050565b6000610826826107ff565b610830818561080a565b935061084081856020860161073a565b61084981610428565b840191505092915050565b6000606082019050610869600083018661064d565b61087660208301856107f0565b8181036040830152610888818461081b565b905094935050505056fea26469706673582212205b6fd8f4a6cb2b31c5abf557f4cd38919e3945502fb26d69ccd13c0bb09f1f6564736f6c63430008110033a2646970667358221220295f7613150483407e22f361f5055067089dc197aa710811775621fd255f6de364736f6c63430008110033",
  "linkReferences": {},
  "deployedLinkReferences": {}
}