{
  "_format": "hh-sol-artifact-1",
  "contractName": "FlashMintSuperToken",
  "sourceName": "contracts/experimental/FlashMintSuperToken.sol",
  "abi": [
    {
      "inputs": [],
      "name": "Initialized",
      "type": "error"
    },
    {
      "inputs": [],
      "name": "InvalidFlashMintReturn",
      "type": "error"
    },
    {
      "inputs": [
        {
          "internalType": "address",
          "name": "token",
          "type": "address"
        }
      ],
      "name": "InvalidToken",
      "type": "error"
    },
    {
      "inputs": [],
      "name": "ZeroAddress",
      "type": "error"
    },
    {
      "stateMutability": "payable",
      "type": "fallback"
    },
    {
      "inputs": [
        {
          "internalType": "address",
          "name": "token",
          "type": "address"
        },
        {
          "internalType": "uint256",
          "name": "amount",
          "type": "uint256"
        }
      ],
      "name": "flashFee",
      "outputs": [
        {
          "internalType": "uint256",
          "name": "",
          "type": "uint256"
        }
      ],
      "stateMutability": "view",
      "type": "function"
    },
    {
      "inputs": [
        {
          "internalType": "contract IERC3156FlashBorrower",
          "name": "receiver",
          "type": "address"
        },
        {
          "internalType": "address",
          "name": "token",
          "type": "address"
        },
        {
          "internalType": "uint256",
          "name": "amount",
          "type": "uint256"
        },
        {
          "internalType": "bytes",
          "name": "data",
          "type": "bytes"
        }
      ],
      "name": "flashLoan",
      "outputs": [
        {
          "internalType": "bool",
          "name": "",
          "type": "bool"
        }
      ],
      "stateMutability": "nonpayable",
      "type": "function"
    },
    {
      "inputs": [
        {
          "internalType": "address",
          "name": "factory",
          "type": "address"
        },
        {
          "internalType": "string",
          "name": "name",
          "type": "string"
        },
        {
          "internalType": "string",
          "name": "symbol",
          "type": "string"
        },
        {
          "internalType": "address",
          "name": "receiver",
          "type": "address"
        },
        {
          "internalType": "uint256",
          "name": "initialSupply",
          "type": "uint256"
        }
      ],
      "name": "initialize",
      "outputs": [],
      "stateMutability": "nonpayable",
      "type": "function"
    },
    {
      "inputs": [
        {
          "internalType": "address",
          "name": "initialAddress",
          "type": "address"
        }
      ],
      "name": "initializeProxy",
      "outputs": [],
      "stateMutability": "nonpayable",
      "type": "function"
    },
    {
      "inputs": [
        {
          "internalType": "address",
          "name": "token",
          "type": "address"
        }
      ],
      "name": "maxFlashLoan",
      "outputs": [
        {
          "internalType": "uint256",
          "name": "",
          "type": "uint256"
        }
      ],
      "stateMutability": "view",
      "type": "function"
    },
    {
      "stateMutability": "payable",
      "type": "receive"
    }
  ],
  "bytecode": "0x608060405234801561001057600080fd5b5061108d806100206000396000f3fe60806040526004361061004e5760003560e01c80634a0687ef146100675780635cffe9de14610090578063613255ab146100cd57806375b30be61461010a578063d9d98ce4146101335761005d565b3661005d5761005b610170565b005b610065610170565b005b34801561007357600080fd5b5061008e6004803603810190610089919061083a565b61018a565b005b34801561009c57600080fd5b506100b760048036038101906100b29190610940565b610283565b6040516100c491906109e3565b60405180910390f35b3480156100d957600080fd5b506100f460048036038101906100ef919061083a565b61044f565b6040516101019190610a0d565b60405180910390f35b34801561011657600080fd5b50610131600480360381019061012c9190610b69565b61049b565b005b34801561013f57600080fd5b5061015a60048036038101906101559190610c1c565b6104b7565b6040516101679190610a0d565b60405180910390f35b610178610533565b610188610183610535565b61055e565b565b600073ffffffffffffffffffffffffffffffffffffffff168173ffffffffffffffffffffffffffffffffffffffff16036101f0576040517fd92e233d00000000000000000000000000000000000000000000000000000000815260040160405180910390fd5b600073ffffffffffffffffffffffffffffffffffffffff16610210610535565b73ffffffffffffffffffffffffffffffffffffffff161461025d576040517f5daa87a000000000000000000000000000000000000000000000000000000000815260040160405180910390fd5b807f360894a13ba1a3210667c828492db98dca3e2076cc3735a920a3ca505d382bbc5550565b60008061029086866104b7565b905061029c8786610584565b7f439148f0bbc682ca079e46d6e2c2f0c1e3b820f1a291b069d8882abf8cf18dd98773ffffffffffffffffffffffffffffffffffffffff166323e30c8b338989868a8a6040518763ffffffff1660e01b815260040161030096959493929190610ca9565b6020604051808303816000875af115801561031f573d6000803e3d6000fd5b505050506040513d601f19601f820116820180604052508101906103439190610d3b565b1461037a576040517fa1a3903d00000000000000000000000000000000000000000000000000000000815260040160405180910390fd5b3073ffffffffffffffffffffffffffffffffffffffff16639d8767418883886103a39190610d97565b600067ffffffffffffffff8111156103be576103bd610a3e565b5b6040519080825280601f01601f1916602001820160405280156103f05781602001600182028036833780820191505090505b506040518463ffffffff1660e01b815260040161040f93929190610e39565b600060405180830381600087803b15801561042957600080fd5b505af115801561043d573d6000803e3d6000fd5b50505050600191505095945050505050565b60003073ffffffffffffffffffffffffffffffffffffffff168273ffffffffffffffffffffffffffffffffffffffff161461048b576000610494565b610493610644565b5b9050919050565b6104a68585856106e5565b6104b08282610584565b5050505050565b60003073ffffffffffffffffffffffffffffffffffffffff168373ffffffffffffffffffffffffffffffffffffffff161461052957826040517f961c9a4f0000000000000000000000000000000000000000000000000000000081526004016105209190610e77565b60405180910390fd5b6000905092915050565b565b60007f360894a13ba1a3210667c828492db98dca3e2076cc3735a920a3ca505d382bbc54905090565b3660008037600080366000845af43d6000803e806000811461057f573d6000f35b3d6000fd5b3073ffffffffffffffffffffffffffffffffffffffff1663c68d42838383600067ffffffffffffffff8111156105bd576105bc610a3e565b5b6040519080825280601f01601f1916602001820160405280156105ef5781602001600182028036833780820191505090505b506040518463ffffffff1660e01b815260040161060e93929190610e39565b600060405180830381600087803b15801561062857600080fd5b505af115801561063c573d6000803e3d6000fd5b505050505050565b60003073ffffffffffffffffffffffffffffffffffffffff166318160ddd6040518163ffffffff1660e01b8152600401602060405180830381865afa158015610691573d6000803e3d6000fd5b505050506040513d601f19601f820116820180604052508101906106b59190610ea7565b7f7fffffffffffffffffffffffffffffffffffffffffffffffffffffffffffffff6106e09190610ed4565b905090565b8273ffffffffffffffffffffffffffffffffffffffff1663d412d344306040518263ffffffff1660e01b815260040161071e9190610e77565b600060405180830381600087803b15801561073857600080fd5b505af115801561074c573d6000803e3d6000fd5b505050503073ffffffffffffffffffffffffffffffffffffffff166342fe09806000601285856040518563ffffffff1660e01b81526004016107919493929190611004565b600060405180830381600087803b1580156107ab57600080fd5b505af11580156107bf573d6000803e3d6000fd5b50505050505050565b6000604051905090565b600080fd5b600080fd5b600073ffffffffffffffffffffffffffffffffffffffff82169050919050565b6000610807826107dc565b9050919050565b610817816107fc565b811461082257600080fd5b50565b6000813590506108348161080e565b92915050565b6000602082840312156108505761084f6107d2565b5b600061085e84828501610825565b91505092915050565b6000610872826107fc565b9050919050565b61088281610867565b811461088d57600080fd5b50565b60008135905061089f81610879565b92915050565b6000819050919050565b6108b8816108a5565b81146108c357600080fd5b50565b6000813590506108d5816108af565b92915050565b600080fd5b600080fd5b600080fd5b60008083601f840112610900576108ff6108db565b5b8235905067ffffffffffffffff81111561091d5761091c6108e0565b5b602083019150836001820283011115610939576109386108e5565b5b9250929050565b60008060008060006080868803121561095c5761095b6107d2565b5b600061096a88828901610890565b955050602061097b88828901610825565b945050604061098c888289016108c6565b935050606086013567ffffffffffffffff8111156109ad576109ac6107d7565b5b6109b9888289016108ea565b92509250509295509295909350565b60008115159050919050565b6109dd816109c8565b82525050565b60006020820190506109f860008301846109d4565b92915050565b610a07816108a5565b82525050565b6000602082019050610a2260008301846109fe565b92915050565b600080fd5b6000601f19601f8301169050919050565b7f4e487b7100000000000000000000000000000000000000000000000000000000600052604160045260246000fd5b610a7682610a2d565b810181811067ffffffffffffffff82111715610a9557610a94610a3e565b5b80604052505050565b6000610aa86107c8565b9050610ab48282610a6d565b919050565b600067ffffffffffffffff821115610ad457610ad3610a3e565b5b610add82610a2d565b9050602081019050919050565b82818337600083830152505050565b6000610b0c610b0784610ab9565b610a9e565b905082815260208101848484011115610b2857610b27610a28565b5b610b33848285610aea565b509392505050565b600082601f830112610b5057610b4f6108db565b5b8135610b60848260208601610af9565b91505092915050565b600080600080600060a08688031215610b8557610b846107d2565b5b6000610b9388828901610825565b955050602086013567ffffffffffffffff811115610bb457610bb36107d7565b5b610bc088828901610b3b565b945050604086013567ffffffffffffffff811115610be157610be06107d7565b5b610bed88828901610b3b565b9350506060610bfe88828901610825565b9250506080610c0f888289016108c6565b9150509295509295909350565b60008060408385031215610c3357610c326107d2565b5b6000610c4185828601610825565b9250506020610c52858286016108c6565b9150509250929050565b610c65816107fc565b82525050565b600082825260208201905092915050565b6000610c888385610c6b565b9350610c95838584610aea565b610c9e83610a2d565b840190509392505050565b600060a082019050610cbe6000830189610c5c565b610ccb6020830188610c5c565b610cd860408301876109fe565b610ce560608301866109fe565b8181036080830152610cf8818486610c7c565b9050979650505050505050565b6000819050919050565b610d1881610d05565b8114610d2357600080fd5b50565b600081519050610d3581610d0f565b92915050565b600060208284031215610d5157610d506107d2565b5b6000610d5f84828501610d26565b91505092915050565b7f4e487b7100000000000000000000000000000000000000000000000000000000600052601160045260246000fd5b6000610da2826108a5565b9150610dad836108a5565b9250828201905080821115610dc557610dc4610d68565b5b92915050565b600081519050919050565b60005b83811015610df4578082015181840152602081019050610dd9565b60008484015250505050565b6000610e0b82610dcb565b610e158185610c6b565b9350610e25818560208601610dd6565b610e2e81610a2d565b840191505092915050565b6000606082019050610e4e6000830186610c5c565b610e5b60208301856109fe565b8181036040830152610e6d8184610e00565b9050949350505050565b6000602082019050610e8c6000830184610c5c565b92915050565b600081519050610ea1816108af565b92915050565b600060208284031215610ebd57610ebc6107d2565b5b6000610ecb84828501610e92565b91505092915050565b6000610edf826108a5565b9150610eea836108a5565b9250828203905081811115610f0257610f01610d68565b5b92915050565b6000819050919050565b6000610f2d610f28610f23846107dc565b610f08565b6107dc565b9050919050565b6000610f3f82610f12565b9050919050565b6000610f5182610f34565b9050919050565b610f6181610f46565b82525050565b6000819050919050565b600060ff82169050919050565b6000610f99610f94610f8f84610f67565b610f08565b610f71565b9050919050565b610fa981610f7e565b82525050565b600081519050919050565b600082825260208201905092915050565b6000610fd682610faf565b610fe08185610fba565b9350610ff0818560208601610dd6565b610ff981610a2d565b840191505092915050565b60006080820190506110196000830187610f58565b6110266020830186610fa0565b81810360408301526110388185610fcb565b9050818103606083015261104c8184610fcb565b90509594505050505056fea2646970667358221220fda1d94cbd5f9d23c7735146c8f23b9784dc6414282fcf8278f17386b531fa2464736f6c63430008110033",
  "linkReferences": {},
  "deployedLinkReferences": {}
}