{
  "_format": "hh-sol-artifact-1",
  "contractName": "BurnMintSuperToken",
  "sourceName": "contracts/BurnMintSuperToken.sol",
  "abi": [
    {
      "inputs": [],
      "stateMutability": "nonpayable",
      "type": "constructor"
    },
    {
      "inputs": [],
      "name": "Initialized",
      "type": "error"
    },
    {
      "inputs": [],
      "name": "ZeroAddress",
      "type": "error"
    },
    {
      "anonymous": false,
      "inputs": [
        {
          "indexed": true,
          "internalType": "bytes32",
          "name": "role",
          "type": "bytes32"
        },
        {
          "indexed": true,
          "internalType": "bytes32",
          "name": "previousAdminRole",
          "type": "bytes32"
        },
        {
          "indexed": true,
          "internalType": "bytes32",
          "name": "newAdminRole",
          "type": "bytes32"
        }
      ],
      "name": "RoleAdminChanged",
      "type": "event"
    },
    {
      "anonymous": false,
      "inputs": [
        {
          "indexed": true,
          "internalType": "bytes32",
          "name": "role",
          "type": "bytes32"
        },
        {
          "indexed": true,
          "internalType": "address",
          "name": "account",
          "type": "address"
        },
        {
          "indexed": true,
          "internalType": "address",
          "name": "sender",
          "type": "address"
        }
      ],
      "name": "RoleGranted",
      "type": "event"
    },
    {
      "anonymous": false,
      "inputs": [
        {
          "indexed": true,
          "internalType": "bytes32",
          "name": "role",
          "type": "bytes32"
        },
        {
          "indexed": true,
          "internalType": "address",
          "name": "account",
          "type": "address"
        },
        {
          "indexed": true,
          "internalType": "address",
          "name": "sender",
          "type": "address"
        }
      ],
      "name": "RoleRevoked",
      "type": "event"
    },
    {
      "stateMutability": "payable",
      "type": "fallback"
    },
    {
      "inputs": [],
      "name": "BURNER_ROLE",
      "outputs": [
        {
          "internalType": "bytes32",
          "name": "",
          "type": "bytes32"
        }
      ],
      "stateMutability": "view",
      "type": "function"
    },
    {
      "inputs": [],
      "name": "DEFAULT_ADMIN_ROLE",
      "outputs": [
        {
          "internalType": "bytes32",
          "name": "",
          "type": "bytes32"
        }
      ],
      "stateMutability": "view",
      "type": "function"
    },
    {
      "inputs": [],
      "name": "MINTER_ROLE",
      "outputs": [
        {
          "internalType": "bytes32",
          "name": "",
          "type": "bytes32"
        }
      ],
      "stateMutability": "view",
      "type": "function"
    },
    {
      "inputs": [
        {
          "internalType": "uint256",
          "name": "amount",
          "type": "uint256"
        },
        {
          "internalType": "bytes",
          "name": "userData",
          "type": "bytes"
        }
      ],
      "name": "burn",
      "outputs": [],
      "stateMutability": "nonpayable",
      "type": "function"
    },
    {
      "inputs": [
        {
          "internalType": "bytes32",
          "name": "role",
          "type": "bytes32"
        }
      ],
      "name": "getRoleAdmin",
      "outputs": [
        {
          "internalType": "bytes32",
          "name": "",
          "type": "bytes32"
        }
      ],
      "stateMutability": "view",
      "type": "function"
    },
    {
      "inputs": [
        {
          "internalType": "bytes32",
          "name": "role",
          "type": "bytes32"
        },
        {
          "internalType": "address",
          "name": "account",
          "type": "address"
        }
      ],
      "name": "grantRole",
      "outputs": [],
      "stateMutability": "nonpayable",
      "type": "function"
    },
    {
      "inputs": [
        {
          "internalType": "bytes32",
          "name": "role",
          "type": "bytes32"
        },
        {
          "internalType": "address",
          "name": "account",
          "type": "address"
        }
      ],
      "name": "hasRole",
      "outputs": [
        {
          "internalType": "bool",
          "name": "",
          "type": "bool"
        }
      ],
      "stateMutability": "view",
      "type": "function"
    },
    {
      "inputs": [
        {
          "internalType": "address",
          "name": "factory",
          "type": "address"
        },
        {
          "internalType": "string",
          "name": "name",
          "type": "string"
        },
        {
          "internalType": "string",
          "name": "symbol",
          "type": "string"
        },
        {
          "internalType": "uint256",
          "name": "initialSupply",
          "type": "uint256"
        },
        {
          "internalType": "address",
          "name": "receiver",
          "type": "address"
        },
        {
          "internalType": "bytes",
          "name": "userData",
          "type": "bytes"
        }
      ],
      "name": "initialize",
      "outputs": [],
      "stateMutability": "nonpayable",
      "type": "function"
    },
    {
      "inputs": [
        {
          "internalType": "address",
          "name": "initialAddress",
          "type": "address"
        }
      ],
      "name": "initializeProxy",
      "outputs": [],
      "stateMutability": "nonpayable",
      "type": "function"
    },
    {
      "inputs": [
        {
          "internalType": "address",
          "name": "receiver",
          "type": "address"
        },
        {
          "internalType": "uint256",
          "name": "amount",
          "type": "uint256"
        },
        {
          "internalType": "bytes",
          "name": "userData",
          "type": "bytes"
        }
      ],
      "name": "mint",
      "outputs": [],
      "stateMutability": "nonpayable",
      "type": "function"
    },
    {
      "inputs": [
        {
          "internalType": "bytes32",
          "name": "role",
          "type": "bytes32"
        },
        {
          "internalType": "address",
          "name": "account",
          "type": "address"
        }
      ],
      "name": "renounceRole",
      "outputs": [],
      "stateMutability": "nonpayable",
      "type": "function"
    },
    {
      "inputs": [
        {
          "internalType": "bytes32",
          "name": "role",
          "type": "bytes32"
        },
        {
          "internalType": "address",
          "name": "account",
          "type": "address"
        }
      ],
      "name": "revokeRole",
      "outputs": [],
      "stateMutability": "nonpayable",
      "type": "function"
    },
    {
      "inputs": [
        {
          "internalType": "bytes4",
          "name": "interfaceId",
          "type": "bytes4"
        }
      ],
      "name": "supportsInterface",
      "outputs": [
        {
          "internalType": "bool",
          "name": "",
          "type": "bool"
        }
      ],
      "stateMutability": "view",
      "type": "function"
    },
    {
      "stateMutability": "payable",
      "type": "receive"
    }
  ],
  "bytecode": "0x60806040523480156200001157600080fd5b50620000276000801b336200002d60201b60201c565b620001a8565b6200003f82826200004360201b60201c565b5050565b6200005582826200013560201b60201c565b620001315760016020600084815260200190815260200160002060000160008373ffffffffffffffffffffffffffffffffffffffff1673ffffffffffffffffffffffffffffffffffffffff16815260200190815260200160002060006101000a81548160ff021916908315150217905550620000d6620001a060201b60201c565b73ffffffffffffffffffffffffffffffffffffffff168173ffffffffffffffffffffffffffffffffffffffff16837f2f8788117e7eff1d82e926ec794901d17c78024a50270940304540a733656f0d60405160405180910390a45b5050565b60006020600084815260200190815260200160002060000160008373ffffffffffffffffffffffffffffffffffffffff1673ffffffffffffffffffffffffffffffffffffffff16815260200190815260200160002060009054906101000a900460ff16905092915050565b600033905090565b6119de80620001b86000396000f3fe6080604052600436106100c65760003560e01c806391d148541161007f578063a6a0559811610059578063a6a0559814610290578063d5391393146102b9578063d547741f146102e4578063fe9d93031461030d576100d5565b806391d14854146101ff57806394d008ef1461023c578063a217fddf14610265576100d5565b806301ffc9a7146100df578063248a9ca31461011c578063282c51f3146101595780632f2ff15d1461018457806336568abe146101ad5780634a0687ef146101d6576100d5565b366100d5576100d3610336565b005b6100dd610336565b005b3480156100eb57600080fd5b5061010660048036038101906101019190610eb4565b610350565b6040516101139190610efc565b60405180910390f35b34801561012857600080fd5b50610143600480360381019061013e9190610f4d565b6103ca565b6040516101509190610f89565b60405180910390f35b34801561016557600080fd5b5061016e6103ea565b60405161017b9190610f89565b60405180910390f35b34801561019057600080fd5b506101ab60048036038101906101a69190611002565b61040e565b005b3480156101b957600080fd5b506101d460048036038101906101cf9190611002565b61042f565b005b3480156101e257600080fd5b506101fd60048036038101906101f89190611042565b6104b2565b005b34801561020b57600080fd5b5061022660048036038101906102219190611002565b6105ab565b6040516102339190610efc565b60405180910390f35b34801561024857600080fd5b50610263600480360381019061025e91906111eb565b610616565b005b34801561027157600080fd5b5061027a610651565b6040516102879190610f89565b60405180910390f35b34801561029c57600080fd5b506102b760048036038101906102b291906112fb565b610658565b005b3480156102c557600080fd5b506102ce610676565b6040516102db9190610f89565b60405180910390f35b3480156102f057600080fd5b5061030b60048036038101906103069190611002565b61069a565b005b34801561031957600080fd5b50610334600480360381019061032f91906113dc565b6106bb565b005b61033e6106f5565b61034e6103496106f7565b610720565b565b60007f7965db0b000000000000000000000000000000000000000000000000000000007bffffffffffffffffffffffffffffffffffffffffffffffffffffffff1916827bffffffffffffffffffffffffffffffffffffffffffffffffffffffff191614806103c357506103c282610746565b5b9050919050565b600060206000838152602001908152602001600020600101549050919050565b7f3c11d16cbaffd01df69ce1c404f6340ee057498f5f00246190ea54220576a84881565b610417826103ca565b610420816107b0565b61042a83836107c4565b505050565b6104376108a5565b73ffffffffffffffffffffffffffffffffffffffff168173ffffffffffffffffffffffffffffffffffffffff16146104a4576040517f08c379a000000000000000000000000000000000000000000000000000000000815260040161049b906114bb565b60405180910390fd5b6104ae82826108ad565b5050565b600073ffffffffffffffffffffffffffffffffffffffff168173ffffffffffffffffffffffffffffffffffffffff1603610518576040517fd92e233d00000000000000000000000000000000000000000000000000000000815260040160405180910390fd5b600073ffffffffffffffffffffffffffffffffffffffff166105386106f7565b73ffffffffffffffffffffffffffffffffffffffff1614610585576040517f5daa87a000000000000000000000000000000000000000000000000000000000815260040160405180910390fd5b807f360894a13ba1a3210667c828492db98dca3e2076cc3735a920a3ca505d382bbc5550565b60006020600084815260200190815260200160002060000160008373ffffffffffffffffffffffffffffffffffffffff1673ffffffffffffffffffffffffffffffffffffffff16815260200190815260200160002060009054906101000a900460ff16905092915050565b7f9f2df0fed2c77648de5860a4cc508cd0818c85b8b8a1ab4ceeef8d981c8956a6610640816107b0565b61064b84848461098f565b50505050565b6000801b81565b610663868686610a03565b61066e82848361098f565b505050505050565b7f9f2df0fed2c77648de5860a4cc508cd0818c85b8b8a1ab4ceeef8d981c8956a681565b6106a3826103ca565b6106ac816107b0565b6106b683836108ad565b505050565b7f3c11d16cbaffd01df69ce1c404f6340ee057498f5f00246190ea54220576a8486106e5816107b0565b6106f0338484610ae6565b505050565b565b60007f360894a13ba1a3210667c828492db98dca3e2076cc3735a920a3ca505d382bbc54905090565b3660008037600080366000845af43d6000803e8060008114610741573d6000f35b3d6000fd5b60007f01ffc9a7000000000000000000000000000000000000000000000000000000007bffffffffffffffffffffffffffffffffffffffffffffffffffffffff1916827bffffffffffffffffffffffffffffffffffffffffffffffffffffffff1916149050919050565b6107c1816107bc6108a5565b610b5a565b50565b6107ce82826105ab565b6108a15760016020600084815260200190815260200160002060000160008373ffffffffffffffffffffffffffffffffffffffff1673ffffffffffffffffffffffffffffffffffffffff16815260200190815260200160002060006101000a81548160ff0219169083151502179055506108466108a5565b73ffffffffffffffffffffffffffffffffffffffff168173ffffffffffffffffffffffffffffffffffffffff16837f2f8788117e7eff1d82e926ec794901d17c78024a50270940304540a733656f0d60405160405180910390a45b5050565b600033905090565b6108b782826105ab565b1561098b5760006020600084815260200190815260200160002060000160008373ffffffffffffffffffffffffffffffffffffffff1673ffffffffffffffffffffffffffffffffffffffff16815260200190815260200160002060006101000a81548160ff0219169083151502179055506109306108a5565b73ffffffffffffffffffffffffffffffffffffffff168173ffffffffffffffffffffffffffffffffffffffff16837ff6391f5c32d9c69d2a47ea670b442974b53935d1edc7fd64eb21e047a839171b60405160405180910390a45b5050565b3073ffffffffffffffffffffffffffffffffffffffff1663c68d42838484846040518463ffffffff1660e01b81526004016109cc93929190611578565b600060405180830381600087803b1580156109e657600080fd5b505af11580156109fa573d6000803e3d6000fd5b50505050505050565b8273ffffffffffffffffffffffffffffffffffffffff1663d412d344306040518263ffffffff1660e01b8152600401610a3c91906115b6565b600060405180830381600087803b158015610a5657600080fd5b505af1158015610a6a573d6000803e3d6000fd5b505050503073ffffffffffffffffffffffffffffffffffffffff166342fe09806000601285856040518563ffffffff1660e01b8152600401610aaf94939291906116bc565b600060405180830381600087803b158015610ac957600080fd5b505af1158015610add573d6000803e3d6000fd5b50505050505050565b3073ffffffffffffffffffffffffffffffffffffffff16639d8767418484846040518463ffffffff1660e01b8152600401610b2393929190611578565b600060405180830381600087803b158015610b3d57600080fd5b505af1158015610b51573d6000803e3d6000fd5b50505050505050565b610b6482826105ab565b610bdb57610b7181610bdf565b610b7f8360001c6020610c0c565b604051602001610b909291906117e3565b6040516020818303038152906040526040517f08c379a0000000000000000000000000000000000000000000000000000000008152600401610bd2919061181d565b60405180910390fd5b5050565b6060610c058273ffffffffffffffffffffffffffffffffffffffff16601460ff16610c0c565b9050919050565b606060006002836002610c1f919061186e565b610c2991906118b0565b67ffffffffffffffff811115610c4257610c416110c0565b5b6040519080825280601f01601f191660200182016040528015610c745781602001600182028036833780820191505090505b5090507f300000000000000000000000000000000000000000000000000000000000000081600081518110610cac57610cab6118e4565b5b60200101907effffffffffffffffffffffffffffffffffffffffffffffffffffffffffffff1916908160001a9053507f780000000000000000000000000000000000000000000000000000000000000081600181518110610d1057610d0f6118e4565b5b60200101907effffffffffffffffffffffffffffffffffffffffffffffffffffffffffffff1916908160001a90535060006001846002610d50919061186e565b610d5a91906118b0565b90505b6001811115610dfa577f3031323334353637383961626364656600000000000000000000000000000000600f861660108110610d9c57610d9b6118e4565b5b1a60f81b828281518110610db357610db26118e4565b5b60200101907effffffffffffffffffffffffffffffffffffffffffffffffffffffffffffff1916908160001a905350600485901c945080610df390611913565b9050610d5d565b5060008414610e3e576040517f08c379a0000000000000000000000000000000000000000000000000000000008152600401610e3590611988565b60405180910390fd5b8091505092915050565b6000604051905090565b600080fd5b600080fd5b60007fffffffff0000000000000000000000000000000000000000000000000000000082169050919050565b610e9181610e5c565b8114610e9c57600080fd5b50565b600081359050610eae81610e88565b92915050565b600060208284031215610eca57610ec9610e52565b5b6000610ed884828501610e9f565b91505092915050565b60008115159050919050565b610ef681610ee1565b82525050565b6000602082019050610f116000830184610eed565b92915050565b6000819050919050565b610f2a81610f17565b8114610f3557600080fd5b50565b600081359050610f4781610f21565b92915050565b600060208284031215610f6357610f62610e52565b5b6000610f7184828501610f38565b91505092915050565b610f8381610f17565b82525050565b6000602082019050610f9e6000830184610f7a565b92915050565b600073ffffffffffffffffffffffffffffffffffffffff82169050919050565b6000610fcf82610fa4565b9050919050565b610fdf81610fc4565b8114610fea57600080fd5b50565b600081359050610ffc81610fd6565b92915050565b6000806040838503121561101957611018610e52565b5b600061102785828601610f38565b925050602061103885828601610fed565b9150509250929050565b60006020828403121561105857611057610e52565b5b600061106684828501610fed565b91505092915050565b6000819050919050565b6110828161106f565b811461108d57600080fd5b50565b60008135905061109f81611079565b92915050565b600080fd5b600080fd5b6000601f19601f8301169050919050565b7f4e487b7100000000000000000000000000000000000000000000000000000000600052604160045260246000fd5b6110f8826110af565b810181811067ffffffffffffffff82111715611117576111166110c0565b5b80604052505050565b600061112a610e48565b905061113682826110ef565b919050565b600067ffffffffffffffff821115611156576111556110c0565b5b61115f826110af565b9050602081019050919050565b82818337600083830152505050565b600061118e6111898461113b565b611120565b9050828152602081018484840111156111aa576111a96110aa565b5b6111b584828561116c565b509392505050565b600082601f8301126111d2576111d16110a5565b5b81356111e284826020860161117b565b91505092915050565b60008060006060848603121561120457611203610e52565b5b600061121286828701610fed565b935050602061122386828701611090565b925050604084013567ffffffffffffffff81111561124457611243610e57565b5b611250868287016111bd565b9150509250925092565b600067ffffffffffffffff821115611275576112746110c0565b5b61127e826110af565b9050602081019050919050565b600061129e6112998461125a565b611120565b9050828152602081018484840111156112ba576112b96110aa565b5b6112c584828561116c565b509392505050565b600082601f8301126112e2576112e16110a5565b5b81356112f284826020860161128b565b91505092915050565b60008060008060008060c0878903121561131857611317610e52565b5b600061132689828a01610fed565b965050602087013567ffffffffffffffff81111561134757611346610e57565b5b61135389828a016112cd565b955050604087013567ffffffffffffffff81111561137457611373610e57565b5b61138089828a016112cd565b945050606061139189828a01611090565b93505060806113a289828a01610fed565b92505060a087013567ffffffffffffffff8111156113c3576113c2610e57565b5b6113cf89828a016111bd565b9150509295509295509295565b600080604083850312156113f3576113f2610e52565b5b600061140185828601611090565b925050602083013567ffffffffffffffff81111561142257611421610e57565b5b61142e858286016111bd565b9150509250929050565b600082825260208201905092915050565b7f416363657373436f6e74726f6c3a2063616e206f6e6c792072656e6f756e636560008201527f20726f6c657320666f722073656c660000000000000000000000000000000000602082015250565b60006114a5602f83611438565b91506114b082611449565b604082019050919050565b600060208201905081810360008301526114d481611498565b9050919050565b6114e481610fc4565b82525050565b6114f38161106f565b82525050565b600081519050919050565b600082825260208201905092915050565b60005b83811015611533578082015181840152602081019050611518565b60008484015250505050565b600061154a826114f9565b6115548185611504565b9350611564818560208601611515565b61156d816110af565b840191505092915050565b600060608201905061158d60008301866114db565b61159a60208301856114ea565b81810360408301526115ac818461153f565b9050949350505050565b60006020820190506115cb60008301846114db565b92915050565b6000819050919050565b60006115f66115f16115ec84610fa4565b6115d1565b610fa4565b9050919050565b6000611608826115db565b9050919050565b600061161a826115fd565b9050919050565b61162a8161160f565b82525050565b6000819050919050565b600060ff82169050919050565b600061166261165d61165884611630565b6115d1565b61163a565b9050919050565b61167281611647565b82525050565b600081519050919050565b600061168e82611678565b6116988185611438565b93506116a8818560208601611515565b6116b1816110af565b840191505092915050565b60006080820190506116d16000830187611621565b6116de6020830186611669565b81810360408301526116f08185611683565b905081810360608301526117048184611683565b905095945050505050565b600081905092915050565b7f416363657373436f6e74726f6c3a206163636f756e7420000000000000000000600082015250565b600061175060178361170f565b915061175b8261171a565b601782019050919050565b600061177182611678565b61177b818561170f565b935061178b818560208601611515565b80840191505092915050565b7f206973206d697373696e6720726f6c6520000000000000000000000000000000600082015250565b60006117cd60118361170f565b91506117d882611797565b601182019050919050565b60006117ee82611743565b91506117fa8285611766565b9150611805826117c0565b91506118118284611766565b91508190509392505050565b600060208201905081810360008301526118378184611683565b905092915050565b7f4e487b7100000000000000000000000000000000000000000000000000000000600052601160045260246000fd5b60006118798261106f565b91506118848361106f565b92508282026118928161106f565b915082820484148315176118a9576118a861183f565b5b5092915050565b60006118bb8261106f565b91506118c68361106f565b92508282019050808211156118de576118dd61183f565b5b92915050565b7f4e487b7100000000000000000000000000000000000000000000000000000000600052603260045260246000fd5b600061191e8261106f565b9150600082036119315761193061183f565b5b600182039050919050565b7f537472696e67733a20686578206c656e67746820696e73756666696369656e74600082015250565b6000611972602083611438565b915061197d8261193c565b602082019050919050565b600060208201905081810360008301526119a181611965565b905091905056fea2646970667358221220c1f4b7d593f401077db55cc3449684e7a290aceba1f32957a878a836c88a9f1964736f6c63430008110033",
  "linkReferences": {},
  "deployedLinkReferences": {}
}