{
  "_format": "hh-sol-artifact-1",
  "contractName": "SuperTokenPermit",
  "sourceName": "contracts/experimental/SuperTokenPermit.sol",
  "abi": [
    {
      "inputs": [],
      "stateMutability": "nonpayable",
      "type": "constructor"
    },
    {
      "inputs": [],
      "name": "Initialized",
      "type": "error"
    },
    {
      "inputs": [],
      "name": "ZeroAddress",
      "type": "error"
    },
    {
      "anonymous": false,
      "inputs": [
        {
          "indexed": true,
          "internalType": "bytes32",
          "name": "role",
          "type": "bytes32"
        },
        {
          "indexed": true,
          "internalType": "bytes32",
          "name": "previousAdminRole",
          "type": "bytes32"
        },
        {
          "indexed": true,
          "internalType": "bytes32",
          "name": "newAdminRole",
          "type": "bytes32"
        }
      ],
      "name": "RoleAdminChanged",
      "type": "event"
    },
    {
      "anonymous": false,
      "inputs": [
        {
          "indexed": true,
          "internalType": "bytes32",
          "name": "role",
          "type": "bytes32"
        },
        {
          "indexed": true,
          "internalType": "address",
          "name": "account",
          "type": "address"
        },
        {
          "indexed": true,
          "internalType": "address",
          "name": "sender",
          "type": "address"
        }
      ],
      "name": "RoleGranted",
      "type": "event"
    },
    {
      "anonymous": false,
      "inputs": [
        {
          "indexed": true,
          "internalType": "bytes32",
          "name": "role",
          "type": "bytes32"
        },
        {
          "indexed": true,
          "internalType": "address",
          "name": "account",
          "type": "address"
        },
        {
          "indexed": true,
          "internalType": "address",
          "name": "sender",
          "type": "address"
        }
      ],
      "name": "RoleRevoked",
      "type": "event"
    },
    {
      "stateMutability": "payable",
      "type": "fallback"
    },
    {
      "inputs": [],
      "name": "BURNER_ROLE",
      "outputs": [
        {
          "internalType": "bytes32",
          "name": "",
          "type": "bytes32"
        }
      ],
      "stateMutability": "view",
      "type": "function"
    },
    {
      "inputs": [],
      "name": "DEFAULT_ADMIN_ROLE",
      "outputs": [
        {
          "internalType": "bytes32",
          "name": "",
          "type": "bytes32"
        }
      ],
      "stateMutability": "view",
      "type": "function"
    },
    {
      "inputs": [],
      "name": "MINTER_ROLE",
      "outputs": [
        {
          "internalType": "bytes32",
          "name": "",
          "type": "bytes32"
        }
      ],
      "stateMutability": "view",
      "type": "function"
    },
    {
      "inputs": [
        {
          "internalType": "uint256",
          "name": "amount",
          "type": "uint256"
        },
        {
          "internalType": "bytes",
          "name": "userData",
          "type": "bytes"
        }
      ],
      "name": "burn",
      "outputs": [],
      "stateMutability": "nonpayable",
      "type": "function"
    },
    {
      "inputs": [
        {
          "internalType": "bytes32",
          "name": "role",
          "type": "bytes32"
        }
      ],
      "name": "getRoleAdmin",
      "outputs": [
        {
          "internalType": "bytes32",
          "name": "",
          "type": "bytes32"
        }
      ],
      "stateMutability": "view",
      "type": "function"
    },
    {
      "inputs": [
        {
          "internalType": "bytes32",
          "name": "role",
          "type": "bytes32"
        },
        {
          "internalType": "address",
          "name": "account",
          "type": "address"
        }
      ],
      "name": "grantRole",
      "outputs": [],
      "stateMutability": "nonpayable",
      "type": "function"
    },
    {
      "inputs": [
        {
          "internalType": "bytes32",
          "name": "role",
          "type": "bytes32"
        },
        {
          "internalType": "address",
          "name": "account",
          "type": "address"
        }
      ],
      "name": "hasRole",
      "outputs": [
        {
          "internalType": "bool",
          "name": "",
          "type": "bool"
        }
      ],
      "stateMutability": "view",
      "type": "function"
    },
    {
      "inputs": [
        {
          "internalType": "address",
          "name": "factory",
          "type": "address"
        },
        {
          "internalType": "string",
          "name": "name",
          "type": "string"
        },
        {
          "internalType": "string",
          "name": "symbol",
          "type": "string"
        },
        {
          "internalType": "address",
          "name": "forwarder",
          "type": "address"
        }
      ],
      "name": "initialize",
      "outputs": [],
      "stateMutability": "nonpayable",
      "type": "function"
    },
    {
      "inputs": [
        {
          "internalType": "address",
          "name": "initialAddress",
          "type": "address"
        }
      ],
      "name": "initializeProxy",
      "outputs": [],
      "stateMutability": "nonpayable",
      "type": "function"
    },
    {
      "inputs": [
        {
          "internalType": "address",
          "name": "receiver",
          "type": "address"
        },
        {
          "internalType": "uint256",
          "name": "amount",
          "type": "uint256"
        },
        {
          "internalType": "bytes",
          "name": "userData",
          "type": "bytes"
        }
      ],
      "name": "mint",
      "outputs": [],
      "stateMutability": "nonpayable",
      "type": "function"
    },
    {
      "inputs": [
        {
          "internalType": "address",
          "name": "owner",
          "type": "address"
        },
        {
          "internalType": "address",
          "name": "spender",
          "type": "address"
        },
        {
          "internalType": "uint256",
          "name": "value",
          "type": "uint256"
        },
        {
          "internalType": "uint256",
          "name": "deadline",
          "type": "uint256"
        },
        {
          "internalType": "uint8",
          "name": "v",
          "type": "uint8"
        },
        {
          "internalType": "bytes32",
          "name": "r",
          "type": "bytes32"
        },
        {
          "internalType": "bytes32",
          "name": "s",
          "type": "bytes32"
        }
      ],
      "name": "permit",
      "outputs": [],
      "stateMutability": "nonpayable",
      "type": "function"
    },
    {
      "inputs": [
        {
          "internalType": "bytes32",
          "name": "role",
          "type": "bytes32"
        },
        {
          "internalType": "address",
          "name": "account",
          "type": "address"
        }
      ],
      "name": "renounceRole",
      "outputs": [],
      "stateMutability": "nonpayable",
      "type": "function"
    },
    {
      "inputs": [
        {
          "internalType": "bytes32",
          "name": "role",
          "type": "bytes32"
        },
        {
          "internalType": "address",
          "name": "account",
          "type": "address"
        }
      ],
      "name": "revokeRole",
      "outputs": [],
      "stateMutability": "nonpayable",
      "type": "function"
    },
    {
      "inputs": [
        {
          "internalType": "bytes4",
          "name": "interfaceId",
          "type": "bytes4"
        }
      ],
      "name": "supportsInterface",
      "outputs": [
        {
          "internalType": "bool",
          "name": "",
          "type": "bool"
        }
      ],
      "stateMutability": "view",
      "type": "function"
    },
    {
      "stateMutability": "payable",
      "type": "receive"
    }
  ],
  "bytecode": "0x608060405260006021553480156200001657600080fd5b506200002c6000801b336200003260201b60201c565b620001ad565b6200004482826200004860201b60201c565b5050565b6200005a82826200013a60201b60201c565b620001365760016020600084815260200190815260200160002060000160008373ffffffffffffffffffffffffffffffffffffffff1673ffffffffffffffffffffffffffffffffffffffff16815260200190815260200160002060006101000a81548160ff021916908315150217905550620000db620001a560201b60201c565b73ffffffffffffffffffffffffffffffffffffffff168173ffffffffffffffffffffffffffffffffffffffff16837f2f8788117e7eff1d82e926ec794901d17c78024a50270940304540a733656f0d60405160405180910390a45b5050565b60006020600084815260200190815260200160002060000160008373ffffffffffffffffffffffffffffffffffffffff1673ffffffffffffffffffffffffffffffffffffffff16815260200190815260200160002060009054906101000a900460ff16905092915050565b600033905090565b6123d980620001bd6000396000f3fe6080604052600436106100e15760003560e01c806391d148541161007f578063d505accf11610059578063d505accf146102d4578063d5391393146102fd578063d547741f14610328578063fe9d930314610351576100f0565b806391d148541461024357806394d008ef14610280578063a217fddf146102a9576100f0565b80632f2ff15d116100bb5780632f2ff15d1461019f57806336568abe146101c85780634a0687ef146101f1578063613d25bb1461021a576100f0565b806301ffc9a7146100fa578063248a9ca314610137578063282c51f314610174576100f0565b366100f0576100ee61037a565b005b6100f861037a565b005b34801561010657600080fd5b50610121600480360381019061011c919061133f565b610394565b60405161012e9190611387565b60405180910390f35b34801561014357600080fd5b5061015e600480360381019061015991906113d8565b61040e565b60405161016b9190611414565b60405180910390f35b34801561018057600080fd5b5061018961042e565b6040516101969190611414565b60405180910390f35b3480156101ab57600080fd5b506101c660048036038101906101c1919061148d565b610452565b005b3480156101d457600080fd5b506101ef60048036038101906101ea919061148d565b610473565b005b3480156101fd57600080fd5b50610218600480360381019061021391906114cd565b6104f6565b005b34801561022657600080fd5b50610241600480360381019061023c9190611640565b6105ef565b005b34801561024f57600080fd5b5061026a6004803603810190610265919061148d565b610641565b6040516102779190611387565b60405180910390f35b34801561028c57600080fd5b506102a760048036038101906102a291906117b6565b6106ac565b005b3480156102b557600080fd5b506102be6106e7565b6040516102cb9190611414565b60405180910390f35b3480156102e057600080fd5b506102fb60048036038101906102f6919061185e565b6106ee565b005b34801561030957600080fd5b506103126107cc565b60405161031f9190611414565b60405180910390f35b34801561033457600080fd5b5061034f600480360381019061034a919061148d565b6107f0565b005b34801561035d57600080fd5b5061037860048036038101906103739190611900565b610811565b005b61038261084b565b61039261038d61084d565b610876565b565b60007f7965db0b000000000000000000000000000000000000000000000000000000007bffffffffffffffffffffffffffffffffffffffffffffffffffffffff1916827bffffffffffffffffffffffffffffffffffffffffffffffffffffffff1916148061040757506104068261089c565b5b9050919050565b600060206000838152602001908152602001600020600101549050919050565b7f3c11d16cbaffd01df69ce1c404f6340ee057498f5f00246190ea54220576a84881565b61045b8261040e565b61046481610906565b61046e838361091a565b505050565b61047b6109fb565b73ffffffffffffffffffffffffffffffffffffffff168173ffffffffffffffffffffffffffffffffffffffff16146104e8576040517f08c379a00000000000000000000000000000000000000000000000000000000081526004016104df906119df565b60405180910390fd5b6104f28282610a03565b5050565b600073ffffffffffffffffffffffffffffffffffffffff168173ffffffffffffffffffffffffffffffffffffffff160361055c576040517fd92e233d00000000000000000000000000000000000000000000000000000000815260040160405180910390fd5b600073ffffffffffffffffffffffffffffffffffffffff1661057c61084d565b73ffffffffffffffffffffffffffffffffffffffff16146105c9576040517f5daa87a000000000000000000000000000000000000000000000000000000000815260040160405180910390fd5b807f360894a13ba1a3210667c828492db98dca3e2076cc3735a920a3ca505d382bbc5550565b6105fa848484610ae5565b80602360006101000a81548173ffffffffffffffffffffffffffffffffffffffff021916908373ffffffffffffffffffffffffffffffffffffffff16021790555050505050565b60006020600084815260200190815260200160002060000160008373ffffffffffffffffffffffffffffffffffffffff1673ffffffffffffffffffffffffffffffffffffffff16815260200190815260200160002060009054906101000a900460ff16905092915050565b7f9f2df0fed2c77648de5860a4cc508cd0818c85b8b8a1ab4ceeef8d981c8956a66106d681610906565b6106e1848484610bc8565b50505050565b6000801b81565b602360009054906101000a900473ffffffffffffffffffffffffffffffffffffffff1673ffffffffffffffffffffffffffffffffffffffff16638171e63261073889898989610c3c565b84848760405160200161074d93929190611a56565b6040516020818303038152906040526040518363ffffffff1660e01b8152600401610779929190611c3f565b6000604051808303816000875af1158015610798573d6000803e3d6000fd5b505050506040513d6000823e3d601f19601f820116820180604052508101906107c19190611d12565b505050505050505050565b7f9f2df0fed2c77648de5860a4cc508cd0818c85b8b8a1ab4ceeef8d981c8956a681565b6107f98261040e565b61080281610906565b61080c8383610a03565b505050565b7f3c11d16cbaffd01df69ce1c404f6340ee057498f5f00246190ea54220576a84861083b81610906565b610846338484610ee3565b505050565b565b60007f360894a13ba1a3210667c828492db98dca3e2076cc3735a920a3ca505d382bbc54905090565b3660008037600080366000845af43d6000803e8060008114610897573d6000f35b3d6000fd5b60007f01ffc9a7000000000000000000000000000000000000000000000000000000007bffffffffffffffffffffffffffffffffffffffffffffffffffffffff1916827bffffffffffffffffffffffffffffffffffffffffffffffffffffffff1916149050919050565b610917816109126109fb565b610f57565b50565b6109248282610641565b6109f75760016020600084815260200190815260200160002060000160008373ffffffffffffffffffffffffffffffffffffffff1673ffffffffffffffffffffffffffffffffffffffff16815260200190815260200160002060006101000a81548160ff02191690831515021790555061099c6109fb565b73ffffffffffffffffffffffffffffffffffffffff168173ffffffffffffffffffffffffffffffffffffffff16837f2f8788117e7eff1d82e926ec794901d17c78024a50270940304540a733656f0d60405160405180910390a45b5050565b600033905090565b610a0d8282610641565b15610ae15760006020600084815260200190815260200160002060000160008373ffffffffffffffffffffffffffffffffffffffff1673ffffffffffffffffffffffffffffffffffffffff16815260200190815260200160002060006101000a81548160ff021916908315150217905550610a866109fb565b73ffffffffffffffffffffffffffffffffffffffff168173ffffffffffffffffffffffffffffffffffffffff16837ff6391f5c32d9c69d2a47ea670b442974b53935d1edc7fd64eb21e047a839171b60405160405180910390a45b5050565b8273ffffffffffffffffffffffffffffffffffffffff1663d412d344306040518263ffffffff1660e01b8152600401610b1e9190611d7d565b600060405180830381600087803b158015610b3857600080fd5b505af1158015610b4c573d6000803e3d6000fd5b505050503073ffffffffffffffffffffffffffffffffffffffff166342fe09806000601285856040518563ffffffff1660e01b8152600401610b919493929190611e76565b600060405180830381600087803b158015610bab57600080fd5b505af1158015610bbf573d6000803e3d6000fd5b50505050505050565b3073ffffffffffffffffffffffffffffffffffffffff1663c68d42838484846040518463ffffffff1660e01b8152600401610c0593929190611ed8565b600060405180830381600087803b158015610c1f57600080fd5b505af1158015610c33573d6000803e3d6000fd5b50505050505050565b610c44611245565b600060405180602001604052806040518060600160405280600163ffffffff1681526020013073ffffffffffffffffffffffffffffffffffffffff1681526020018888604051602001610c98929190611f16565b6040516020818303038152906040528152508152509050600081604051602401610cc29190612064565b6040516020818303038152906040527f670e77e3000000000000000000000000000000000000000000000000000000007bffffffffffffffffffffffffffffffffffffffffffffffffffffffff19166020820180517bffffffffffffffffffffffffffffffffffffffffffffffffffffffff838183161783525050505090506040518061012001604052808873ffffffffffffffffffffffffffffffffffffffff1681526020013073ffffffffffffffffffffffffffffffffffffffff166320bc44256040518163ffffffff1660e01b8152600401602060405180830381865afa158015610db4573d6000803e3d6000fd5b505050506040513d601f19601f82011682018060405250810190610dd8919061209b565b73ffffffffffffffffffffffffffffffffffffffff1681526020013073ffffffffffffffffffffffffffffffffffffffff168152602001622dc6c0815260200160215481526020016022548152602001602360009054906101000a900473ffffffffffffffffffffffffffffffffffffffff1673ffffffffffffffffffffffffffffffffffffffff1663895358038a6022546040518363ffffffff1660e01b8152600401610e87929190611f16565b602060405180830381865afa158015610ea4573d6000803e3d6000fd5b505050506040513d601f19601f82011682018060405250810190610ec891906120dd565b81526020018581526020018281525092505050949350505050565b3073ffffffffffffffffffffffffffffffffffffffff16639d8767418484846040518463ffffffff1660e01b8152600401610f2093929190611ed8565b600060405180830381600087803b158015610f3a57600080fd5b505af1158015610f4e573d6000803e3d6000fd5b50505050505050565b610f618282610641565b610fd857610f6e81610fdc565b610f7c8360001c6020611009565b604051602001610f8d9291906121de565b6040516020818303038152906040526040517f08c379a0000000000000000000000000000000000000000000000000000000008152600401610fcf9190612218565b60405180910390fd5b5050565b60606110028273ffffffffffffffffffffffffffffffffffffffff16601460ff16611009565b9050919050565b60606000600283600261101c9190612269565b61102691906122ab565b67ffffffffffffffff81111561103f5761103e611515565b5b6040519080825280601f01601f1916602001820160405280156110715781602001600182028036833780820191505090505b5090507f3000000000000000000000000000000000000000000000000000000000000000816000815181106110a9576110a86122df565b5b60200101907effffffffffffffffffffffffffffffffffffffffffffffffffffffffffffff1916908160001a9053507f78000000000000000000000000000000000000000000000000000000000000008160018151811061110d5761110c6122df565b5b60200101907effffffffffffffffffffffffffffffffffffffffffffffffffffffffffffff1916908160001a9053506000600184600261114d9190612269565b61115791906122ab565b90505b60018111156111f7577f3031323334353637383961626364656600000000000000000000000000000000600f861660108110611199576111986122df565b5b1a60f81b8282815181106111b0576111af6122df565b5b60200101907effffffffffffffffffffffffffffffffffffffffffffffffffffffffffffff1916908160001a905350600485901c9450806111f09061230e565b905061115a565b506000841461123b576040517f08c379a000000000000000000000000000000000000000000000000000000000815260040161123290612383565b60405180910390fd5b8091505092915050565b604051806101200160405280600073ffffffffffffffffffffffffffffffffffffffff168152602001600073ffffffffffffffffffffffffffffffffffffffff168152602001600073ffffffffffffffffffffffffffffffffffffffff1681526020016000815260200160008152602001600081526020016000815260200160008152602001606081525090565b6000604051905090565b600080fd5b600080fd5b60007fffffffff0000000000000000000000000000000000000000000000000000000082169050919050565b61131c816112e7565b811461132757600080fd5b50565b60008135905061133981611313565b92915050565b600060208284031215611355576113546112dd565b5b60006113638482850161132a565b91505092915050565b60008115159050919050565b6113818161136c565b82525050565b600060208201905061139c6000830184611378565b92915050565b6000819050919050565b6113b5816113a2565b81146113c057600080fd5b50565b6000813590506113d2816113ac565b92915050565b6000602082840312156113ee576113ed6112dd565b5b60006113fc848285016113c3565b91505092915050565b61140e816113a2565b82525050565b60006020820190506114296000830184611405565b92915050565b600073ffffffffffffffffffffffffffffffffffffffff82169050919050565b600061145a8261142f565b9050919050565b61146a8161144f565b811461147557600080fd5b50565b60008135905061148781611461565b92915050565b600080604083850312156114a4576114a36112dd565b5b60006114b2858286016113c3565b92505060206114c385828601611478565b9150509250929050565b6000602082840312156114e3576114e26112dd565b5b60006114f184828501611478565b91505092915050565b600080fd5b600080fd5b6000601f19601f8301169050919050565b7f4e487b7100000000000000000000000000000000000000000000000000000000600052604160045260246000fd5b61154d82611504565b810181811067ffffffffffffffff8211171561156c5761156b611515565b5b80604052505050565b600061157f6112d3565b905061158b8282611544565b919050565b600067ffffffffffffffff8211156115ab576115aa611515565b5b6115b482611504565b9050602081019050919050565b82818337600083830152505050565b60006115e36115de84611590565b611575565b9050828152602081018484840111156115ff576115fe6114ff565b5b61160a8482856115c1565b509392505050565b600082601f830112611627576116266114fa565b5b81356116378482602086016115d0565b91505092915050565b6000806000806080858703121561165a576116596112dd565b5b600061166887828801611478565b945050602085013567ffffffffffffffff811115611689576116886112e2565b5b61169587828801611612565b935050604085013567ffffffffffffffff8111156116b6576116b56112e2565b5b6116c287828801611612565b92505060606116d387828801611478565b91505092959194509250565b6000819050919050565b6116f2816116df565b81146116fd57600080fd5b50565b60008135905061170f816116e9565b92915050565b600067ffffffffffffffff8211156117305761172f611515565b5b61173982611504565b9050602081019050919050565b600061175961175484611715565b611575565b905082815260208101848484011115611775576117746114ff565b5b6117808482856115c1565b509392505050565b600082601f83011261179d5761179c6114fa565b5b81356117ad848260208601611746565b91505092915050565b6000806000606084860312156117cf576117ce6112dd565b5b60006117dd86828701611478565b93505060206117ee86828701611700565b925050604084013567ffffffffffffffff81111561180f5761180e6112e2565b5b61181b86828701611788565b9150509250925092565b600060ff82169050919050565b61183b81611825565b811461184657600080fd5b50565b60008135905061185881611832565b92915050565b600080600080600080600060e0888a03121561187d5761187c6112dd565b5b600061188b8a828b01611478565b975050602061189c8a828b01611478565b96505060406118ad8a828b01611700565b95505060606118be8a828b01611700565b94505060806118cf8a828b01611849565b93505060a06118e08a828b016113c3565b92505060c06118f18a828b016113c3565b91505092959891949750929550565b60008060408385031215611917576119166112dd565b5b600061192585828601611700565b925050602083013567ffffffffffffffff811115611946576119456112e2565b5b61195285828601611788565b9150509250929050565b600082825260208201905092915050565b7f416363657373436f6e74726f6c3a2063616e206f6e6c792072656e6f756e636560008201527f20726f6c657320666f722073656c660000000000000000000000000000000000602082015250565b60006119c9602f8361195c565b91506119d48261196d565b604082019050919050565b600060208201905081810360008301526119f8816119bc565b9050919050565b6000819050919050565b611a1a611a15826113a2565b6119ff565b82525050565b60008160f81b9050919050565b6000611a3882611a20565b9050919050565b611a50611a4b82611825565b611a2d565b82525050565b6000611a628286611a09565b602082019150611a728285611a09565b602082019150611a828284611a3f565b600182019150819050949350505050565b611a9c8161144f565b82525050565b611aab816116df565b82525050565b600081519050919050565b600082825260208201905092915050565b60005b83811015611aeb578082015181840152602081019050611ad0565b60008484015250505050565b6000611b0282611ab1565b611b0c8185611abc565b9350611b1c818560208601611acd565b611b2581611504565b840191505092915050565b600061012083016000830151611b496000860182611a93565b506020830151611b5c6020860182611a93565b506040830151611b6f6040860182611a93565b506060830151611b826060860182611aa2565b506080830151611b956080860182611aa2565b5060a0830151611ba860a0860182611aa2565b5060c0830151611bbb60c0860182611aa2565b5060e0830151611bce60e0860182611aa2565b50610100830151848203610100860152611be88282611af7565b9150508091505092915050565b600082825260208201905092915050565b6000611c1182611ab1565b611c1b8185611bf5565b9350611c2b818560208601611acd565b611c3481611504565b840191505092915050565b60006040820190508181036000830152611c598185611b30565b90508181036020830152611c6d8184611c06565b90509392505050565b611c7f8161136c565b8114611c8a57600080fd5b50565b600081519050611c9c81611c76565b92915050565b6000611cb5611cb084611715565b611575565b905082815260208101848484011115611cd157611cd06114ff565b5b611cdc848285611acd565b509392505050565b600082601f830112611cf957611cf86114fa565b5b8151611d09848260208601611ca2565b91505092915050565b60008060408385031215611d2957611d286112dd565b5b6000611d3785828601611c8d565b925050602083015167ffffffffffffffff811115611d5857611d576112e2565b5b611d6485828601611ce4565b9150509250929050565b611d778161144f565b82525050565b6000602082019050611d926000830184611d6e565b92915050565b6000819050919050565b6000611dbd611db8611db38461142f565b611d98565b61142f565b9050919050565b6000611dcf82611da2565b9050919050565b6000611de182611dc4565b9050919050565b611df181611dd6565b82525050565b6000819050919050565b6000611e1c611e17611e1284611df7565b611d98565b611825565b9050919050565b611e2c81611e01565b82525050565b600081519050919050565b6000611e4882611e32565b611e52818561195c565b9350611e62818560208601611acd565b611e6b81611504565b840191505092915050565b6000608082019050611e8b6000830187611de8565b611e986020830186611e23565b8181036040830152611eaa8185611e3d565b90508181036060830152611ebe8184611e3d565b905095945050505050565b611ed2816116df565b82525050565b6000606082019050611eed6000830186611d6e565b611efa6020830185611ec9565b8181036040830152611f0c8184611c06565b9050949350505050565b6000604082019050611f2b6000830185611d6e565b611f386020830184611ec9565b9392505050565b600060019050919050565b600081905092915050565b6000819050919050565b600063ffffffff82169050919050565b611f7881611f5f565b82525050565b6000606083016000830151611f966000860182611f6f565b506020830151611fa96020860182611a93565b5060408301518482036040860152611fc18282611af7565b9150508091505092915050565b6000611fda8383611f7e565b905092915050565b6000602082019050919050565b6000611ffa82611f3f565b6120048185611f4a565b93508360208202850161201685611f55565b8060005b8581101561205257848403895281516120338582611fce565b945061203e83611fe2565b925060208a0199505060018101905061201a565b50829750879550505050505092915050565b6000602082019050818103600083015261207e8184611fef565b905092915050565b60008151905061209581611461565b92915050565b6000602082840312156120b1576120b06112dd565b5b60006120bf84828501612086565b91505092915050565b6000815190506120d7816116e9565b92915050565b6000602082840312156120f3576120f26112dd565b5b6000612101848285016120c8565b91505092915050565b600081905092915050565b7f416363657373436f6e74726f6c3a206163636f756e7420000000000000000000600082015250565b600061214b60178361210a565b915061215682612115565b601782019050919050565b600061216c82611e32565b612176818561210a565b9350612186818560208601611acd565b80840191505092915050565b7f206973206d697373696e6720726f6c6520000000000000000000000000000000600082015250565b60006121c860118361210a565b91506121d382612192565b601182019050919050565b60006121e98261213e565b91506121f58285612161565b9150612200826121bb565b915061220c8284612161565b91508190509392505050565b600060208201905081810360008301526122328184611e3d565b905092915050565b7f4e487b7100000000000000000000000000000000000000000000000000000000600052601160045260246000fd5b6000612274826116df565b915061227f836116df565b925082820261228d816116df565b915082820484148315176122a4576122a361223a565b5b5092915050565b60006122b6826116df565b91506122c1836116df565b92508282019050808211156122d9576122d861223a565b5b92915050565b7f4e487b7100000000000000000000000000000000000000000000000000000000600052603260045260246000fd5b6000612319826116df565b91506000820361232c5761232b61223a565b5b600182039050919050565b7f537472696e67733a20686578206c656e67746820696e73756666696369656e74600082015250565b600061236d60208361195c565b915061237882612337565b602082019050919050565b6000602082019050818103600083015261239c81612360565b905091905056fea26469706673582212206e0983120a35c3a941c2b4e9d2e3a2a87c6aa383fe66893fff8f1dcfc91a052d64736f6c63430008110033",
  "linkReferences": {},
  "deployedLinkReferences": {}
}