{
  "_format": "hh-sol-artifact-1",
  "contractName": "BurnableSuperToken",
  "sourceName": "contracts/BurnableSuperToken.sol",
  "abi": [
    {
      "inputs": [],
      "name": "Initialized",
      "type": "error"
    },
    {
      "inputs": [],
      "name": "ZeroAddress",
      "type": "error"
    },
    {
      "stateMutability": "payable",
      "type": "fallback"
    },
    {
      "inputs": [
        {
          "internalType": "uint256",
          "name": "amount",
          "type": "uint256"
        },
        {
          "internalType": "bytes",
          "name": "userData",
          "type": "bytes"
        }
      ],
      "name": "burn",
      "outputs": [],
      "stateMutability": "nonpayable",
      "type": "function"
    },
    {
      "inputs": [
        {
          "internalType": "address",
          "name": "factory",
          "type": "address"
        },
        {
          "internalType": "string",
          "name": "name",
          "type": "string"
        },
        {
          "internalType": "string",
          "name": "symbol",
          "type": "string"
        },
        {
          "internalType": "uint256",
          "name": "initialSupply",
          "type": "uint256"
        },
        {
          "internalType": "address",
          "name": "receiver",
          "type": "address"
        },
        {
          "internalType": "bytes",
          "name": "userData",
          "type": "bytes"
        }
      ],
      "name": "initialize",
      "outputs": [],
      "stateMutability": "nonpayable",
      "type": "function"
    },
    {
      "inputs": [
        {
          "internalType": "address",
          "name": "initialAddress",
          "type": "address"
        }
      ],
      "name": "initializeProxy",
      "outputs": [],
      "stateMutability": "nonpayable",
      "type": "function"
    },
    {
      "stateMutability": "payable",
      "type": "receive"
    }
  ],
  "bytecode": "0x608060405234801561001057600080fd5b50610a9c806100206000396000f3fe6080604052600436106100385760003560e01c80634a0687ef14610051578063a6a055981461007a578063fe9d9303146100a357610047565b36610047576100456100cc565b005b61004f6100cc565b005b34801561005d57600080fd5b506100786004803603810190610073919061049a565b6100e6565b005b34801561008657600080fd5b506100a1600480360381019061009c91906106e4565b6101df565b005b3480156100af57600080fd5b506100ca60048036038101906100c591906107c5565b6101fd565b005b6100d461020c565b6100e46100df61020e565b610237565b565b600073ffffffffffffffffffffffffffffffffffffffff168173ffffffffffffffffffffffffffffffffffffffff160361014c576040517fd92e233d00000000000000000000000000000000000000000000000000000000815260040160405180910390fd5b600073ffffffffffffffffffffffffffffffffffffffff1661016c61020e565b73ffffffffffffffffffffffffffffffffffffffff16146101b9576040517f5daa87a000000000000000000000000000000000000000000000000000000000815260040160405180910390fd5b807f360894a13ba1a3210667c828492db98dca3e2076cc3735a920a3ca505d382bbc5550565b6101ea86868661025d565b6101f5828483610340565b505050505050565b6102083383836103b4565b5050565b565b60007f360894a13ba1a3210667c828492db98dca3e2076cc3735a920a3ca505d382bbc54905090565b3660008037600080366000845af43d6000803e8060008114610258573d6000f35b3d6000fd5b8273ffffffffffffffffffffffffffffffffffffffff1663d412d344306040518263ffffffff1660e01b81526004016102969190610830565b600060405180830381600087803b1580156102b057600080fd5b505af11580156102c4573d6000803e3d6000fd5b505050503073ffffffffffffffffffffffffffffffffffffffff166342fe09806000601285856040518563ffffffff1660e01b81526004016103099493929190610971565b600060405180830381600087803b15801561032357600080fd5b505af1158015610337573d6000803e3d6000fd5b50505050505050565b3073ffffffffffffffffffffffffffffffffffffffff1663c68d42838484846040518463ffffffff1660e01b815260040161037d93929190610a28565b600060405180830381600087803b15801561039757600080fd5b505af11580156103ab573d6000803e3d6000fd5b50505050505050565b3073ffffffffffffffffffffffffffffffffffffffff16639d8767418484846040518463ffffffff1660e01b81526004016103f193929190610a28565b600060405180830381600087803b15801561040b57600080fd5b505af115801561041f573d6000803e3d6000fd5b50505050505050565b6000604051905090565b600080fd5b600080fd5b600073ffffffffffffffffffffffffffffffffffffffff82169050919050565b60006104678261043c565b9050919050565b6104778161045c565b811461048257600080fd5b50565b6000813590506104948161046e565b92915050565b6000602082840312156104b0576104af610432565b5b60006104be84828501610485565b91505092915050565b600080fd5b600080fd5b6000601f19601f8301169050919050565b7f4e487b7100000000000000000000000000000000000000000000000000000000600052604160045260246000fd5b61051a826104d1565b810181811067ffffffffffffffff82111715610539576105386104e2565b5b80604052505050565b600061054c610428565b90506105588282610511565b919050565b600067ffffffffffffffff821115610578576105776104e2565b5b610581826104d1565b9050602081019050919050565b82818337600083830152505050565b60006105b06105ab8461055d565b610542565b9050828152602081018484840111156105cc576105cb6104cc565b5b6105d784828561058e565b509392505050565b600082601f8301126105f4576105f36104c7565b5b813561060484826020860161059d565b91505092915050565b6000819050919050565b6106208161060d565b811461062b57600080fd5b50565b60008135905061063d81610617565b92915050565b600067ffffffffffffffff82111561065e5761065d6104e2565b5b610667826104d1565b9050602081019050919050565b600061068761068284610643565b610542565b9050828152602081018484840111156106a3576106a26104cc565b5b6106ae84828561058e565b509392505050565b600082601f8301126106cb576106ca6104c7565b5b81356106db848260208601610674565b91505092915050565b60008060008060008060c0878903121561070157610700610432565b5b600061070f89828a01610485565b965050602087013567ffffffffffffffff8111156107305761072f610437565b5b61073c89828a016105df565b955050604087013567ffffffffffffffff81111561075d5761075c610437565b5b61076989828a016105df565b945050606061077a89828a0161062e565b935050608061078b89828a01610485565b92505060a087013567ffffffffffffffff8111156107ac576107ab610437565b5b6107b889828a016106b6565b9150509295509295509295565b600080604083850312156107dc576107db610432565b5b60006107ea8582860161062e565b925050602083013567ffffffffffffffff81111561080b5761080a610437565b5b610817858286016106b6565b9150509250929050565b61082a8161045c565b82525050565b60006020820190506108456000830184610821565b92915050565b6000819050919050565b600061087061086b6108668461043c565b61084b565b61043c565b9050919050565b600061088282610855565b9050919050565b600061089482610877565b9050919050565b6108a481610889565b82525050565b6000819050919050565b600060ff82169050919050565b60006108dc6108d76108d2846108aa565b61084b565b6108b4565b9050919050565b6108ec816108c1565b82525050565b600081519050919050565b600082825260208201905092915050565b60005b8381101561092c578082015181840152602081019050610911565b60008484015250505050565b6000610943826108f2565b61094d81856108fd565b935061095d81856020860161090e565b610966816104d1565b840191505092915050565b6000608082019050610986600083018761089b565b61099360208301866108e3565b81810360408301526109a58185610938565b905081810360608301526109b98184610938565b905095945050505050565b6109cd8161060d565b82525050565b600081519050919050565b600082825260208201905092915050565b60006109fa826109d3565b610a0481856109de565b9350610a1481856020860161090e565b610a1d816104d1565b840191505092915050565b6000606082019050610a3d6000830186610821565b610a4a60208301856109c4565b8181036040830152610a5c81846109ef565b905094935050505056fea2646970667358221220cc738c30c6fd9f399790ccaebc48eb504441bab3904f8b36cc9d9163567d003064736f6c63430008110033",
  "linkReferences": {},
  "deployedLinkReferences": {}
}