{
  "_format": "hh-sol-artifact-1",
  "contractName": "CappedSuperToken",
  "sourceName": "contracts/CappedSuperToken.sol",
  "abi": [
    {
      "inputs": [],
      "name": "Initialized",
      "type": "error"
    },
    {
      "inputs": [],
      "name": "SupplyCapped",
      "type": "error"
    },
    {
      "inputs": [],
      "name": "ZeroAddress",
      "type": "error"
    },
    {
      "anonymous": false,
      "inputs": [
        {
          "indexed": true,
          "internalType": "address",
          "name": "previousOwner",
          "type": "address"
        },
        {
          "indexed": true,
          "internalType": "address",
          "name": "newOwner",
          "type": "address"
        }
      ],
      "name": "OwnershipTransferred",
      "type": "event"
    },
    {
      "stateMutability": "payable",
      "type": "fallback"
    },
    {
      "inputs": [
        {
          "internalType": "address",
          "name": "factory",
          "type": "address"
        },
        {
          "internalType": "string",
          "name": "name",
          "type": "string"
        },
        {
          "internalType": "string",
          "name": "symbol",
          "type": "string"
        },
        {
          "internalType": "uint256",
          "name": "_maxSupply",
          "type": "uint256"
        }
      ],
      "name": "initialize",
      "outputs": [],
      "stateMutability": "nonpayable",
      "type": "function"
    },
    {
      "inputs": [
        {
          "internalType": "address",
          "name": "initialAddress",
          "type": "address"
        }
      ],
      "name": "initializeProxy",
      "outputs": [],
      "stateMutability": "nonpayable",
      "type": "function"
    },
    {
      "inputs": [],
      "name": "maxSupply",
      "outputs": [
        {
          "internalType": "uint256",
          "name": "",
          "type": "uint256"
        }
      ],
      "stateMutability": "view",
      "type": "function"
    },
    {
      "inputs": [
        {
          "internalType": "address",
          "name": "recipient",
          "type": "address"
        },
        {
          "internalType": "uint256",
          "name": "amount",
          "type": "uint256"
        },
        {
          "internalType": "bytes",
          "name": "userData",
          "type": "bytes"
        }
      ],
      "name": "mint",
      "outputs": [],
      "stateMutability": "nonpayable",
      "type": "function"
    },
    {
      "inputs": [],
      "name": "owner",
      "outputs": [
        {
          "internalType": "address",
          "name": "",
          "type": "address"
        }
      ],
      "stateMutability": "view",
      "type": "function"
    },
    {
      "inputs": [],
      "name": "renounceOwnership",
      "outputs": [],
      "stateMutability": "nonpayable",
      "type": "function"
    },
    {
      "inputs": [
        {
          "internalType": "address",
          "name": "newOwner",
          "type": "address"
        }
      ],
      "name": "transferOwnership",
      "outputs": [],
      "stateMutability": "nonpayable",
      "type": "function"
    },
    {
      "stateMutability": "payable",
      "type": "receive"
    }
  ],
  "bytecode": "0x608060405234801561001057600080fd5b5061002d61002261003260201b60201c565b61003a60201b60201c565b610100565b600033905090565b6000602060009054906101000a900473ffffffffffffffffffffffffffffffffffffffff16905081602060006101000a81548173ffffffffffffffffffffffffffffffffffffffff021916908373ffffffffffffffffffffffffffffffffffffffff1602179055508173ffffffffffffffffffffffffffffffffffffffff168173ffffffffffffffffffffffffffffffffffffffff167f8be0079c531659141344cd1fd0a4f28419497f9722a3daafe3b4186f6b6457e060405160405180910390a35050565b610f638061010f6000396000f3fe6080604052600436106100745760003560e01c80638da5cb5b1161004e5780638da5cb5b146100f657806394d008ef14610121578063d5abeb011461014a578063f2fde38b1461017557610083565b80634a0687ef1461008d5780634d12d4b6146100b6578063715018a6146100df57610083565b366100835761008161019e565b005b61008b61019e565b005b34801561009957600080fd5b506100b460048036038101906100af91906107d2565b6101b8565b005b3480156100c257600080fd5b506100dd60048036038101906100d8919061097b565b6102b1565b005b3480156100eb57600080fd5b506100f46102c9565b005b34801561010257600080fd5b5061010b6102dd565b6040516101189190610a29565b60405180910390f35b34801561012d57600080fd5b5061014860048036038101906101439190610ae5565b610307565b005b34801561015657600080fd5b5061015f61036d565b60405161016c9190610b63565b60405180910390f35b34801561018157600080fd5b5061019c600480360381019061019791906107d2565b610373565b005b6101a66103f6565b6101b66101b16103f8565b610421565b565b600073ffffffffffffffffffffffffffffffffffffffff168173ffffffffffffffffffffffffffffffffffffffff160361021e576040517fd92e233d00000000000000000000000000000000000000000000000000000000815260040160405180910390fd5b600073ffffffffffffffffffffffffffffffffffffffff1661023e6103f8565b73ffffffffffffffffffffffffffffffffffffffff161461028b576040517f5daa87a000000000000000000000000000000000000000000000000000000000815260040160405180910390fd5b807f360894a13ba1a3210667c828492db98dca3e2076cc3735a920a3ca505d382bbc5550565b6102bc848484610447565b8060218190555050505050565b6102d161052a565b6102db60006105a8565b565b6000602060009054906101000a900473ffffffffffffffffffffffffffffffffffffffff16905090565b61030f61052a565b6021548261031b61066e565b6103259190610bad565b111561035d576040517fb575039f00000000000000000000000000000000000000000000000000000000815260040160405180910390fd5b6103688383836106e4565b505050565b60215481565b61037b61052a565b600073ffffffffffffffffffffffffffffffffffffffff168173ffffffffffffffffffffffffffffffffffffffff16036103ea576040517f08c379a00000000000000000000000000000000000000000000000000000000081526004016103e190610c64565b60405180910390fd5b6103f3816105a8565b50565b565b60007f360894a13ba1a3210667c828492db98dca3e2076cc3735a920a3ca505d382bbc54905090565b3660008037600080366000845af43d6000803e8060008114610442573d6000f35b3d6000fd5b8273ffffffffffffffffffffffffffffffffffffffff1663d412d344306040518263ffffffff1660e01b81526004016104809190610a29565b600060405180830381600087803b15801561049a57600080fd5b505af11580156104ae573d6000803e3d6000fd5b505050503073ffffffffffffffffffffffffffffffffffffffff166342fe09806000601285856040518563ffffffff1660e01b81526004016104f39493929190610d99565b600060405180830381600087803b15801561050d57600080fd5b505af1158015610521573d6000803e3d6000fd5b50505050505050565b610532610758565b73ffffffffffffffffffffffffffffffffffffffff166105506102dd565b73ffffffffffffffffffffffffffffffffffffffff16146105a6576040517f08c379a000000000000000000000000000000000000000000000000000000000815260040161059d90610e38565b60405180910390fd5b565b6000602060009054906101000a900473ffffffffffffffffffffffffffffffffffffffff16905081602060006101000a81548173ffffffffffffffffffffffffffffffffffffffff021916908373ffffffffffffffffffffffffffffffffffffffff1602179055508173ffffffffffffffffffffffffffffffffffffffff168173ffffffffffffffffffffffffffffffffffffffff167f8be0079c531659141344cd1fd0a4f28419497f9722a3daafe3b4186f6b6457e060405160405180910390a35050565b60003073ffffffffffffffffffffffffffffffffffffffff166318160ddd6040518163ffffffff1660e01b8152600401602060405180830381865afa1580156106bb573d6000803e3d6000fd5b505050506040513d601f19601f820116820180604052508101906106df9190610e6d565b905090565b3073ffffffffffffffffffffffffffffffffffffffff1663c68d42838484846040518463ffffffff1660e01b815260040161072193929190610eef565b600060405180830381600087803b15801561073b57600080fd5b505af115801561074f573d6000803e3d6000fd5b50505050505050565b600033905090565b6000604051905090565b600080fd5b600080fd5b600073ffffffffffffffffffffffffffffffffffffffff82169050919050565b600061079f82610774565b9050919050565b6107af81610794565b81146107ba57600080fd5b50565b6000813590506107cc816107a6565b92915050565b6000602082840312156107e8576107e761076a565b5b60006107f6848285016107bd565b91505092915050565b600080fd5b600080fd5b6000601f19601f8301169050919050565b7f4e487b7100000000000000000000000000000000000000000000000000000000600052604160045260246000fd5b61085282610809565b810181811067ffffffffffffffff821117156108715761087061081a565b5b80604052505050565b6000610884610760565b90506108908282610849565b919050565b600067ffffffffffffffff8211156108b0576108af61081a565b5b6108b982610809565b9050602081019050919050565b82818337600083830152505050565b60006108e86108e384610895565b61087a565b90508281526020810184848401111561090457610903610804565b5b61090f8482856108c6565b509392505050565b600082601f83011261092c5761092b6107ff565b5b813561093c8482602086016108d5565b91505092915050565b6000819050919050565b61095881610945565b811461096357600080fd5b50565b6000813590506109758161094f565b92915050565b600080600080608085870312156109955761099461076a565b5b60006109a3878288016107bd565b945050602085013567ffffffffffffffff8111156109c4576109c361076f565b5b6109d087828801610917565b935050604085013567ffffffffffffffff8111156109f1576109f061076f565b5b6109fd87828801610917565b9250506060610a0e87828801610966565b91505092959194509250565b610a2381610794565b82525050565b6000602082019050610a3e6000830184610a1a565b92915050565b600067ffffffffffffffff821115610a5f57610a5e61081a565b5b610a6882610809565b9050602081019050919050565b6000610a88610a8384610a44565b61087a565b905082815260208101848484011115610aa457610aa3610804565b5b610aaf8482856108c6565b509392505050565b600082601f830112610acc57610acb6107ff565b5b8135610adc848260208601610a75565b91505092915050565b600080600060608486031215610afe57610afd61076a565b5b6000610b0c868287016107bd565b9350506020610b1d86828701610966565b925050604084013567ffffffffffffffff811115610b3e57610b3d61076f565b5b610b4a86828701610ab7565b9150509250925092565b610b5d81610945565b82525050565b6000602082019050610b786000830184610b54565b92915050565b7f4e487b7100000000000000000000000000000000000000000000000000000000600052601160045260246000fd5b6000610bb882610945565b9150610bc383610945565b9250828201905080821115610bdb57610bda610b7e565b5b92915050565b600082825260208201905092915050565b7f4f776e61626c653a206e6577206f776e657220697320746865207a65726f206160008201527f6464726573730000000000000000000000000000000000000000000000000000602082015250565b6000610c4e602683610be1565b9150610c5982610bf2565b604082019050919050565b60006020820190508181036000830152610c7d81610c41565b9050919050565b6000819050919050565b6000610ca9610ca4610c9f84610774565b610c84565b610774565b9050919050565b6000610cbb82610c8e565b9050919050565b6000610ccd82610cb0565b9050919050565b610cdd81610cc2565b82525050565b6000819050919050565b600060ff82169050919050565b6000610d15610d10610d0b84610ce3565b610c84565b610ced565b9050919050565b610d2581610cfa565b82525050565b600081519050919050565b60005b83811015610d54578082015181840152602081019050610d39565b60008484015250505050565b6000610d6b82610d2b565b610d758185610be1565b9350610d85818560208601610d36565b610d8e81610809565b840191505092915050565b6000608082019050610dae6000830187610cd4565b610dbb6020830186610d1c565b8181036040830152610dcd8185610d60565b90508181036060830152610de18184610d60565b905095945050505050565b7f4f776e61626c653a2063616c6c6572206973206e6f7420746865206f776e6572600082015250565b6000610e22602083610be1565b9150610e2d82610dec565b602082019050919050565b60006020820190508181036000830152610e5181610e15565b9050919050565b600081519050610e678161094f565b92915050565b600060208284031215610e8357610e8261076a565b5b6000610e9184828501610e58565b91505092915050565b600081519050919050565b600082825260208201905092915050565b6000610ec182610e9a565b610ecb8185610ea5565b9350610edb818560208601610d36565b610ee481610809565b840191505092915050565b6000606082019050610f046000830186610a1a565b610f116020830185610b54565b8181036040830152610f238184610eb6565b905094935050505056fea264697066735822122089c5a37c4a37b92163b88a302704d7d85713937650a2e4adc43a1289bd9cb90b64736f6c63430008110033",
  "linkReferences": {},
  "deployedLinkReferences": {}
}