{
  "_format": "hh-sol-artifact-1",
  "contractName": "StreamFromMint",
  "sourceName": "contracts/experimental/StreamFromMint.sol",
  "abi": [
    {
      "inputs": [],
      "name": "Initialized",
      "type": "error"
    },
    {
      "inputs": [],
      "name": "InvalidAddresses",
      "type": "error"
    },
    {
      "inputs": [],
      "name": "ZeroAddress",
      "type": "error"
    },
    {
      "anonymous": false,
      "inputs": [
        {
          "indexed": true,
          "internalType": "address",
          "name": "receiver",
          "type": "address"
        },
        {
          "indexed": false,
          "internalType": "int96",
          "name": "flowRate",
          "type": "int96"
        },
        {
          "indexed": false,
          "internalType": "uint256",
          "name": "sum",
          "type": "uint256"
        }
      ],
      "name": "MintStreamUpdate",
      "type": "event"
    },
    {
      "stateMutability": "payable",
      "type": "fallback"
    },
    {
      "inputs": [
        {
          "internalType": "address",
          "name": "factory",
          "type": "address"
        },
        {
          "internalType": "string",
          "name": "name",
          "type": "string"
        },
        {
          "internalType": "string",
          "name": "symbol",
          "type": "string"
        },
        {
          "internalType": "contract IConstantFlowAgreementV1",
          "name": "cfa",
          "type": "address"
        },
        {
          "internalType": "address",
          "name": "receiver",
          "type": "address"
        },
        {
          "internalType": "int96",
          "name": "mintFlowRate",
          "type": "int96"
        }
      ],
      "name": "initialize",
      "outputs": [],
      "stateMutability": "nonpayable",
      "type": "function"
    },
    {
      "inputs": [
        {
          "internalType": "address",
          "name": "initialAddress",
          "type": "address"
        }
      ],
      "name": "initializeProxy",
      "outputs": [],
      "stateMutability": "nonpayable",
      "type": "function"
    },
    {
      "inputs": [],
      "name": "totalSupply",
      "outputs": [
        {
          "internalType": "uint256",
          "name": "",
          "type": "uint256"
        }
      ],
      "stateMutability": "view",
      "type": "function"
    },
    {
      "stateMutability": "payable",
      "type": "receive"
    }
  ],
  "bytecode": "0x608060405234801561001057600080fd5b506119bc806100206000396000f3fe6080604052600436106100385760003560e01c806318160ddd14610051578063436048891461007c5780634a0687ef146100a557610047565b36610047576100456100ce565b005b61004f6100ce565b005b34801561005d57600080fd5b506100666100e8565b604051610073919061108f565b60405180910390f35b34801561008857600080fd5b506100a3600480360381019061009e91906112d9565b61012a565b005b3480156100b157600080fd5b506100cc60048036038101906100c7919061139e565b610215565b005b6100d661030e565b6100e66100e1610310565b610339565b565b6000806000806100f661035f565b9350935093505080824261010a91906113fa565b84600b0b610118919061142e565b6101229190611470565b935050505090565b82602060006101000a81548173ffffffffffffffffffffffffffffffffffffffff021916908373ffffffffffffffffffffffffffffffffffffffff1602179055506101768686866103bb565b3073ffffffffffffffffffffffffffffffffffffffff1663c68d4283307f7fffffffffffffffffffffffffffffffffffffffffffffffffffffffffffffff6040518363ffffffff1660e01b81526004016101d1929190611510565b600060405180830381600087803b1580156101eb57600080fd5b505af11580156101ff573d6000803e3d6000fd5b5050505061020d828261049e565b505050505050565b600073ffffffffffffffffffffffffffffffffffffffff168173ffffffffffffffffffffffffffffffffffffffff160361027b576040517fd92e233d00000000000000000000000000000000000000000000000000000000815260040160405180910390fd5b600073ffffffffffffffffffffffffffffffffffffffff1661029b610310565b73ffffffffffffffffffffffffffffffffffffffff16146102e8576040517f5daa87a000000000000000000000000000000000000000000000000000000000815260040160405180910390fd5b807f360894a13ba1a3210667c828492db98dca3e2076cc3735a920a3ca505d382bbc5550565b565b60007f360894a13ba1a3210667c828492db98dca3e2076cc3735a920a3ca505d382bbc54905090565b3660008037600080366000845af43d6000803e806000811461035a573d6000f35b3d6000fd5b6000806000806000602190508060000160009054906101000a900473ffffffffffffffffffffffffffffffffffffffff168160000160149054906101000a9004600b0b8260010154836002015494509450945094505090919293565b8273ffffffffffffffffffffffffffffffffffffffff1663d412d344306040518263ffffffff1660e01b81526004016103f4919061154c565b600060405180830381600087803b15801561040e57600080fd5b505af1158015610422573d6000803e3d6000fd5b505050503073ffffffffffffffffffffffffffffffffffffffff166342fe09806000601285856040518563ffffffff1660e01b8152600401610467949392919061168d565b600060405180830381600087803b15801561048157600080fd5b505af1158015610495573d6000803e3d6000fd5b50505050505050565b6000806000806104ac61035f565b9350935093509350600073ffffffffffffffffffffffffffffffffffffffff168473ffffffffffffffffffffffffffffffffffffffff160361071757600073ffffffffffffffffffffffffffffffffffffffff168673ffffffffffffffffffffffffffffffffffffffff160361054e576040517fca07b5fb00000000000000000000000000000000000000000000000000000000815260040160405180910390fd5b610556610ed6565b73ffffffffffffffffffffffffffffffffffffffff166339255d5b602060009054906101000a900473ffffffffffffffffffffffffffffffffffffffff166362fc305e60e01b308a8a600067ffffffffffffffff8111156105ba576105b9611137565b5b6040519080825280601f01601f1916602001820160405280156105ec5781602001600182028036833780820191505090505b506040516024016106009493929190611733565b604051602081830303815290604052907bffffffffffffffffffffffffffffffffffffffffffffffffffffffff19166020820180517bffffffffffffffffffffffffffffffffffffffffffffffffffffffff8381831617835250505050600067ffffffffffffffff81111561067857610677611137565b5b6040519080825280601f01601f1916602001820160405280156106aa5781602001600182028036833780820191505090505b506040518463ffffffff1660e01b81526004016106c9939291906117a0565b6000604051808303816000875af11580156106e8573d6000803e3d6000fd5b505050506040513d6000823e3d601f19601f820116820180604052508101906107119190611886565b50610e9b565b600073ffffffffffffffffffffffffffffffffffffffff168673ffffffffffffffffffffffffffffffffffffffff160361091457610753610ed6565b73ffffffffffffffffffffffffffffffffffffffff166339255d5b602060009054906101000a900473ffffffffffffffffffffffffffffffffffffffff1663b4b333c660e01b303089600067ffffffffffffffff8111156107b7576107b6611137565b5b6040519080825280601f01601f1916602001820160405280156107e95781602001600182028036833780820191505090505b506040516024016107fd94939291906118cf565b604051602081830303815290604052907bffffffffffffffffffffffffffffffffffffffffffffffffffffffff19166020820180517bffffffffffffffffffffffffffffffffffffffffffffffffffffffff8381831617835250505050600067ffffffffffffffff81111561087557610874611137565b5b6040519080825280601f01601f1916602001820160405280156108a75781602001600182028036833780820191505090505b506040518463ffffffff1660e01b81526004016108c6939291906117a0565b6000604051808303816000875af11580156108e5573d6000803e3d6000fd5b505050506040513d6000823e3d601f19601f8201168201806040525081019061090e9190611886565b50610e9a565b8373ffffffffffffffffffffffffffffffffffffffff168673ffffffffffffffffffffffffffffffffffffffff1603610b105761094f610ed6565b73ffffffffffffffffffffffffffffffffffffffff166339255d5b602060009054906101000a900473ffffffffffffffffffffffffffffffffffffffff166350209a6260e01b308a8a600067ffffffffffffffff8111156109b3576109b2611137565b5b6040519080825280601f01601f1916602001820160405280156109e55781602001600182028036833780820191505090505b506040516024016109f99493929190611733565b604051602081830303815290604052907bffffffffffffffffffffffffffffffffffffffffffffffffffffffff19166020820180517bffffffffffffffffffffffffffffffffffffffffffffffffffffffff8381831617835250505050600067ffffffffffffffff811115610a7157610a70611137565b5b6040519080825280601f01601f191660200182016040528015610aa35781602001600182028036833780820191505090505b506040518463ffffffff1660e01b8152600401610ac2939291906117a0565b6000604051808303816000875af1158015610ae1573d6000803e3d6000fd5b505050506040513d6000823e3d601f19601f82011682018060405250810190610b0a9190611886565b50610e99565b610b18610ed6565b73ffffffffffffffffffffffffffffffffffffffff166339255d5b602060009054906101000a900473ffffffffffffffffffffffffffffffffffffffff1663b4b333c660e01b303089600067ffffffffffffffff811115610b7c57610b7b611137565b5b6040519080825280601f01601f191660200182016040528015610bae5781602001600182028036833780820191505090505b50604051602401610bc294939291906118cf565b604051602081830303815290604052907bffffffffffffffffffffffffffffffffffffffffffffffffffffffff19166020820180517bffffffffffffffffffffffffffffffffffffffffffffffffffffffff8381831617835250505050600067ffffffffffffffff811115610c3a57610c39611137565b5b6040519080825280601f01601f191660200182016040528015610c6c5781602001600182028036833780820191505090505b506040518463ffffffff1660e01b8152600401610c8b939291906117a0565b6000604051808303816000875af1158015610caa573d6000803e3d6000fd5b505050506040513d6000823e3d601f19601f82011682018060405250810190610cd39190611886565b50610cdc610ed6565b73ffffffffffffffffffffffffffffffffffffffff166339255d5b602060009054906101000a900473ffffffffffffffffffffffffffffffffffffffff166362fc305e60e01b308a8a600067ffffffffffffffff811115610d4057610d3f611137565b5b6040519080825280601f01601f191660200182016040528015610d725781602001600182028036833780820191505090505b50604051602401610d869493929190611733565b604051602081830303815290604052907bffffffffffffffffffffffffffffffffffffffffffffffffffffffff19166020820180517bffffffffffffffffffffffffffffffffffffffffffffffffffffffff8381831617835250505050600067ffffffffffffffff811115610dfe57610dfd611137565b5b6040519080825280601f01601f191660200182016040528015610e305781602001600182028036833780820191505090505b506040518463ffffffff1660e01b8152600401610e4f939291906117a0565b6000604051808303816000875af1158015610e6e573d6000803e3d6000fd5b505050506040513d6000823e3d601f19601f82011682018060405250810190610e979190611886565b505b5b5b8142610ea791906113fa565b83600b0b610eb5919061142e565b81610ec09190611470565b9050610ece86864284610f4c565b505050505050565b60003073ffffffffffffffffffffffffffffffffffffffff166320bc44256040518163ffffffff1660e01b8152600401602060405180830381865afa158015610f23573d6000803e3d6000fd5b505050506040513d601f19601f82011682018060405250810190610f479190611930565b905090565b8373ffffffffffffffffffffffffffffffffffffffff167fcf91ff1d0d58e051ce4eafa9474b8438d86d054ab6581026faa21e57dbd0492f8483604051610f9492919061195d565b60405180910390a260405180608001604052808573ffffffffffffffffffffffffffffffffffffffff16815260200184600b0b815260200183815260200182815250602160008201518160000160006101000a81548173ffffffffffffffffffffffffffffffffffffffff021916908373ffffffffffffffffffffffffffffffffffffffff16021790555060208201518160000160146101000a8154816bffffffffffffffffffffffff0219169083600b0b6bffffffffffffffffffffffff160217905550604082015181600101556060820151816002015590505050505050565b6000819050919050565b61108981611076565b82525050565b60006020820190506110a46000830184611080565b92915050565b6000604051905090565b600080fd5b600080fd5b600073ffffffffffffffffffffffffffffffffffffffff82169050919050565b60006110e9826110be565b9050919050565b6110f9816110de565b811461110457600080fd5b50565b600081359050611116816110f0565b92915050565b600080fd5b600080fd5b6000601f19601f8301169050919050565b7f4e487b7100000000000000000000000000000000000000000000000000000000600052604160045260246000fd5b61116f82611126565b810181811067ffffffffffffffff8211171561118e5761118d611137565b5b80604052505050565b60006111a16110aa565b90506111ad8282611166565b919050565b600067ffffffffffffffff8211156111cd576111cc611137565b5b6111d682611126565b9050602081019050919050565b82818337600083830152505050565b6000611205611200846111b2565b611197565b90508281526020810184848401111561122157611220611121565b5b61122c8482856111e3565b509392505050565b600082601f8301126112495761124861111c565b5b81356112598482602086016111f2565b91505092915050565b600061126d826110de565b9050919050565b61127d81611262565b811461128857600080fd5b50565b60008135905061129a81611274565b92915050565b600081600b0b9050919050565b6112b6816112a0565b81146112c157600080fd5b50565b6000813590506112d3816112ad565b92915050565b60008060008060008060c087890312156112f6576112f56110b4565b5b600061130489828a01611107565b965050602087013567ffffffffffffffff811115611325576113246110b9565b5b61133189828a01611234565b955050604087013567ffffffffffffffff811115611352576113516110b9565b5b61135e89828a01611234565b945050606061136f89828a0161128b565b935050608061138089828a01611107565b92505060a061139189828a016112c4565b9150509295509295509295565b6000602082840312156113b4576113b36110b4565b5b60006113c284828501611107565b91505092915050565b7f4e487b7100000000000000000000000000000000000000000000000000000000600052601160045260246000fd5b600061140582611076565b915061141083611076565b9250828203905081811115611428576114276113cb565b5b92915050565b600061143982611076565b915061144483611076565b925082820261145281611076565b91508282048414831517611469576114686113cb565b5b5092915050565b600061147b82611076565b915061148683611076565b925082820190508082111561149e5761149d6113cb565b5b92915050565b6114ad816110de565b82525050565b600082825260208201905092915050565b7f3078000000000000000000000000000000000000000000000000000000000000600082015250565b60006114fa6002836114b3565b9150611505826114c4565b602082019050919050565b600060608201905061152560008301856114a4565b6115326020830184611080565b8181036040830152611543816114ed565b90509392505050565b600060208201905061156160008301846114a4565b92915050565b6000819050919050565b600061158c611587611582846110be565b611567565b6110be565b9050919050565b600061159e82611571565b9050919050565b60006115b082611593565b9050919050565b6115c0816115a5565b82525050565b6000819050919050565b600060ff82169050919050565b60006115f86115f36115ee846115c6565b611567565b6115d0565b9050919050565b611608816115dd565b82525050565b600081519050919050565b600082825260208201905092915050565b60005b8381101561164857808201518184015260208101905061162d565b60008484015250505050565b600061165f8261160e565b6116698185611619565b935061167981856020860161162a565b61168281611126565b840191505092915050565b60006080820190506116a260008301876115b7565b6116af60208301866115ff565b81810360408301526116c18185611654565b905081810360608301526116d58184611654565b905095945050505050565b6116e9816112a0565b82525050565b600081519050919050565b6000611705826116ef565b61170f81856114b3565b935061171f81856020860161162a565b61172881611126565b840191505092915050565b600060808201905061174860008301876114a4565b61175560208301866114a4565b61176260408301856116e0565b818103606083015261177481846116fa565b905095945050505050565b600061178a82611593565b9050919050565b61179a8161177f565b82525050565b60006060820190506117b56000830186611791565b81810360208301526117c781856116fa565b905081810360408301526117db81846116fa565b9050949350505050565b600067ffffffffffffffff821115611800576117ff611137565b5b61180982611126565b9050602081019050919050565b6000611829611824846117e5565b611197565b90508281526020810184848401111561184557611844611121565b5b61185084828561162a565b509392505050565b600082601f83011261186d5761186c61111c565b5b815161187d848260208601611816565b91505092915050565b60006020828403121561189c5761189b6110b4565b5b600082015167ffffffffffffffff8111156118ba576118b96110b9565b5b6118c684828501611858565b91505092915050565b60006080820190506118e460008301876114a4565b6118f160208301866114a4565b6118fe60408301856114a4565b818103606083015261191081846116fa565b905095945050505050565b60008151905061192a816110f0565b92915050565b600060208284031215611946576119456110b4565b5b60006119548482850161191b565b91505092915050565b600060408201905061197260008301856116e0565b61197f6020830184611080565b939250505056fea2646970667358221220876f60444ac311f7edb2fe5095cb32307a69e5008a12ebb6eb6c0cb1755a8a1a64736f6c63430008110033",
  "linkReferences": {},
  "deployedLinkReferences": {}
}