{
  "_format": "hh-sol-artifact-1",
  "contractName": "MultiMintToken",
  "sourceName": "contracts/experimental/MultiMintToken.sol",
  "abi": [
    {
      "inputs": [],
      "name": "Initialized",
      "type": "error"
    },
    {
      "inputs": [],
      "name": "IntervalNotPassed",
      "type": "error"
    },
    {
      "inputs": [],
      "name": "NotShareIssuer",
      "type": "error"
    },
    {
      "inputs": [],
      "name": "ZeroAddress",
      "type": "error"
    },
    {
      "stateMutability": "payable",
      "type": "fallback"
    },
    {
      "inputs": [
        {
          "internalType": "address",
          "name": "factory",
          "type": "address"
        },
        {
          "internalType": "string",
          "name": "_name",
          "type": "string"
        },
        {
          "internalType": "string",
          "name": "_symbol",
          "type": "string"
        },
        {
          "internalType": "address",
          "name": "_ida",
          "type": "address"
        },
        {
          "internalType": "address",
          "name": "_shareIssuer",
          "type": "address"
        },
        {
          "internalType": "uint256",
          "name": "_mintInterval",
          "type": "uint256"
        },
        {
          "internalType": "uint256",
          "name": "_mintAmount",
          "type": "uint256"
        }
      ],
      "name": "initialize",
      "outputs": [],
      "stateMutability": "nonpayable",
      "type": "function"
    },
    {
      "inputs": [
        {
          "internalType": "address",
          "name": "initialAddress",
          "type": "address"
        }
      ],
      "name": "initializeProxy",
      "outputs": [],
      "stateMutability": "nonpayable",
      "type": "function"
    },
    {
      "inputs": [
        {
          "internalType": "address",
          "name": "recipient",
          "type": "address"
        },
        {
          "internalType": "uint128",
          "name": "shares",
          "type": "uint128"
        }
      ],
      "name": "issueShare",
      "outputs": [],
      "stateMutability": "nonpayable",
      "type": "function"
    },
    {
      "inputs": [],
      "name": "lastMint",
      "outputs": [
        {
          "internalType": "uint256",
          "name": "",
          "type": "uint256"
        }
      ],
      "stateMutability": "view",
      "type": "function"
    },
    {
      "inputs": [],
      "name": "mint",
      "outputs": [],
      "stateMutability": "nonpayable",
      "type": "function"
    },
    {
      "inputs": [],
      "name": "mintAmount",
      "outputs": [
        {
          "internalType": "uint256",
          "name": "",
          "type": "uint256"
        }
      ],
      "stateMutability": "view",
      "type": "function"
    },
    {
      "inputs": [],
      "name": "mintInterval",
      "outputs": [
        {
          "internalType": "uint256",
          "name": "",
          "type": "uint256"
        }
      ],
      "stateMutability": "view",
      "type": "function"
    },
    {
      "stateMutability": "payable",
      "type": "receive"
    }
  ],
  "bytecode": "0x608060405234801561001057600080fd5b50611564806100206000396000f3fe6080604052600436106100745760003560e01c8063586fc5b51161004e578063586fc5b5146100f85780635a2bcc1814610123578063643c541f1461014e578063f4f610121461017757610083565b80630e726e6b1461008d5780631249c58b146100b85780634a0687ef146100cf57610083565b36610083576100816101a0565b005b61008b6101a0565b005b34801561009957600080fd5b506100a26101ba565b6040516100af9190610c63565b60405180910390f35b3480156100c457600080fd5b506100cd6101c0565b005b3480156100db57600080fd5b506100f660048036038101906100f19190610cf0565b610437565b005b34801561010457600080fd5b5061010d610530565b60405161011a9190610c63565b60405180910390f35b34801561012f57600080fd5b50610138610536565b6040516101459190610c63565b60405180910390f35b34801561015a57600080fd5b5061017560048036038101906101709190610e8f565b61053c565b005b34801561018357600080fd5b5061019e60048036038101906101999190610fb1565b6107c2565b005b6101a8610a2c565b6101b86101b3610a2e565b610a57565b565b60205481565b426020546022546101d19190611020565b1115610209576040517ffd95f67700000000000000000000000000000000000000000000000000000000815260040160405180910390fd5b426022819055506000602154905061025730826040518060400160405280600281526020017f3078000000000000000000000000000000000000000000000000000000000000815250610a7d565b61025f610af1565b73ffffffffffffffffffffffffffffffffffffffff166339255d5b602460009054906101000a900473ffffffffffffffffffffffffffffffffffffffff1630600085600067ffffffffffffffff8111156102bc576102bb610d38565b5b6040519080825280601f01601f1916602001820160405280156102ee5781602001600182028036833780820191505090505b506040516024016103029493929190611101565b6040516020818303038152906040527fb96731c2000000000000000000000000000000000000000000000000000000007bffffffffffffffffffffffffffffffffffffffffffffffffffffffff19166020820180517bffffffffffffffffffffffffffffffffffffffffffffffffffffffff8381831617835250505050600067ffffffffffffffff81111561039a57610399610d38565b5b6040519080825280601f01601f1916602001820160405280156103cc5781602001600182028036833780820191505090505b506040518463ffffffff1660e01b81526004016103eb939291906111ac565b6000604051808303816000875af115801561040a573d6000803e3d6000fd5b505050506040513d6000823e3d601f19601f820116820180604052508101906104339190611292565b5050565b600073ffffffffffffffffffffffffffffffffffffffff168173ffffffffffffffffffffffffffffffffffffffff160361049d576040517fd92e233d00000000000000000000000000000000000000000000000000000000815260040160405180910390fd5b600073ffffffffffffffffffffffffffffffffffffffff166104bd610a2e565b73ffffffffffffffffffffffffffffffffffffffff161461050a576040517f5daa87a000000000000000000000000000000000000000000000000000000000815260040160405180910390fd5b807f360894a13ba1a3210667c828492db98dca3e2076cc3735a920a3ca505d382bbc5550565b60225481565b60215481565b610547878787610b67565b83602460006101000a81548173ffffffffffffffffffffffffffffffffffffffff021916908373ffffffffffffffffffffffffffffffffffffffff16021790555082602360006101000a81548173ffffffffffffffffffffffffffffffffffffffff021916908373ffffffffffffffffffffffffffffffffffffffff160217905550816020819055508060218190555060006022819055506105e7610af1565b73ffffffffffffffffffffffffffffffffffffffff166339255d5b602460009054906101000a900473ffffffffffffffffffffffffffffffffffffffff163060008067ffffffffffffffff81111561064257610641610d38565b5b6040519080825280601f01601f1916602001820160405280156106745781602001600182028036833780820191505090505b50604051602401610687939291906112db565b6040516020818303038152906040527fd787840a000000000000000000000000000000000000000000000000000000007bffffffffffffffffffffffffffffffffffffffffffffffffffffffff19166020820180517bffffffffffffffffffffffffffffffffffffffffffffffffffffffff8381831617835250505050600067ffffffffffffffff81111561071f5761071e610d38565b5b6040519080825280601f01601f1916602001820160405280156107515781602001600182028036833780820191505090505b506040518463ffffffff1660e01b8152600401610770939291906111ac565b6000604051808303816000875af115801561078f573d6000803e3d6000fd5b505050506040513d6000823e3d601f19601f820116820180604052508101906107b89190611292565b5050505050505050565b602360009054906101000a900473ffffffffffffffffffffffffffffffffffffffff1673ffffffffffffffffffffffffffffffffffffffff163373ffffffffffffffffffffffffffffffffffffffff1614610849576040517f5d907e9500000000000000000000000000000000000000000000000000000000815260040160405180910390fd5b610851610af1565b73ffffffffffffffffffffffffffffffffffffffff166339255d5b602460009054906101000a900473ffffffffffffffffffffffffffffffffffffffff163060008686600067ffffffffffffffff8111156108af576108ae610d38565b5b6040519080825280601f01601f1916602001820160405280156108e15781602001600182028036833780820191505090505b506040516024016108f6959493929190611328565b6040516020818303038152906040527f232d2b58000000000000000000000000000000000000000000000000000000007bffffffffffffffffffffffffffffffffffffffffffffffffffffffff19166020820180517bffffffffffffffffffffffffffffffffffffffffffffffffffffffff8381831617835250505050600067ffffffffffffffff81111561098e5761098d610d38565b5b6040519080825280601f01601f1916602001820160405280156109c05781602001600182028036833780820191505090505b506040518463ffffffff1660e01b81526004016109df939291906111ac565b6000604051808303816000875af11580156109fe573d6000803e3d6000fd5b505050506040513d6000823e3d601f19601f82011682018060405250810190610a279190611292565b505050565b565b60007f360894a13ba1a3210667c828492db98dca3e2076cc3735a920a3ca505d382bbc54905090565b3660008037600080366000845af43d6000803e8060008114610a78573d6000f35b3d6000fd5b3073ffffffffffffffffffffffffffffffffffffffff1663c68d42838484846040518463ffffffff1660e01b8152600401610aba93929190611382565b600060405180830381600087803b158015610ad457600080fd5b505af1158015610ae8573d6000803e3d6000fd5b50505050505050565b60003073ffffffffffffffffffffffffffffffffffffffff166320bc44256040518163ffffffff1660e01b8152600401602060405180830381865afa158015610b3e573d6000803e3d6000fd5b505050506040513d601f19601f82011682018060405250810190610b6291906113d5565b905090565b8273ffffffffffffffffffffffffffffffffffffffff1663d412d344306040518263ffffffff1660e01b8152600401610ba09190611402565b600060405180830381600087803b158015610bba57600080fd5b505af1158015610bce573d6000803e3d6000fd5b505050503073ffffffffffffffffffffffffffffffffffffffff166342fe09806000601285856040518563ffffffff1660e01b8152600401610c1394939291906114db565b600060405180830381600087803b158015610c2d57600080fd5b505af1158015610c41573d6000803e3d6000fd5b50505050505050565b6000819050919050565b610c5d81610c4a565b82525050565b6000602082019050610c786000830184610c54565b92915050565b6000604051905090565b600080fd5b600080fd5b600073ffffffffffffffffffffffffffffffffffffffff82169050919050565b6000610cbd82610c92565b9050919050565b610ccd81610cb2565b8114610cd857600080fd5b50565b600081359050610cea81610cc4565b92915050565b600060208284031215610d0657610d05610c88565b5b6000610d1484828501610cdb565b91505092915050565b600080fd5b600080fd5b6000601f19601f8301169050919050565b7f4e487b7100000000000000000000000000000000000000000000000000000000600052604160045260246000fd5b610d7082610d27565b810181811067ffffffffffffffff82111715610d8f57610d8e610d38565b5b80604052505050565b6000610da2610c7e565b9050610dae8282610d67565b919050565b600067ffffffffffffffff821115610dce57610dcd610d38565b5b610dd782610d27565b9050602081019050919050565b82818337600083830152505050565b6000610e06610e0184610db3565b610d98565b905082815260208101848484011115610e2257610e21610d22565b5b610e2d848285610de4565b509392505050565b600082601f830112610e4a57610e49610d1d565b5b8135610e5a848260208601610df3565b91505092915050565b610e6c81610c4a565b8114610e7757600080fd5b50565b600081359050610e8981610e63565b92915050565b600080600080600080600060e0888a031215610eae57610ead610c88565b5b6000610ebc8a828b01610cdb565b975050602088013567ffffffffffffffff811115610edd57610edc610c8d565b5b610ee98a828b01610e35565b965050604088013567ffffffffffffffff811115610f0a57610f09610c8d565b5b610f168a828b01610e35565b9550506060610f278a828b01610cdb565b9450506080610f388a828b01610cdb565b93505060a0610f498a828b01610e7a565b92505060c0610f5a8a828b01610e7a565b91505092959891949750929550565b60006fffffffffffffffffffffffffffffffff82169050919050565b610f8e81610f69565b8114610f9957600080fd5b50565b600081359050610fab81610f85565b92915050565b60008060408385031215610fc857610fc7610c88565b5b6000610fd685828601610cdb565b9250506020610fe785828601610f9c565b9150509250929050565b7f4e487b7100000000000000000000000000000000000000000000000000000000600052601160045260246000fd5b600061102b82610c4a565b915061103683610c4a565b925082820190508082111561104e5761104d610ff1565b5b92915050565b61105d81610cb2565b82525050565b600063ffffffff82169050919050565b61107c81611063565b82525050565b600081519050919050565b600082825260208201905092915050565b60005b838110156110bc5780820151818401526020810190506110a1565b60008484015250505050565b60006110d382611082565b6110dd818561108d565b93506110ed81856020860161109e565b6110f681610d27565b840191505092915050565b60006080820190506111166000830187611054565b6111236020830186611073565b6111306040830185610c54565b818103606083015261114281846110c8565b905095945050505050565b6000819050919050565b600061117261116d61116884610c92565b61114d565b610c92565b9050919050565b600061118482611157565b9050919050565b600061119682611179565b9050919050565b6111a68161118b565b82525050565b60006060820190506111c1600083018661119d565b81810360208301526111d381856110c8565b905081810360408301526111e781846110c8565b9050949350505050565b600067ffffffffffffffff82111561120c5761120b610d38565b5b61121582610d27565b9050602081019050919050565b6000611235611230846111f1565b610d98565b90508281526020810184848401111561125157611250610d22565b5b61125c84828561109e565b509392505050565b600082601f83011261127957611278610d1d565b5b8151611289848260208601611222565b91505092915050565b6000602082840312156112a8576112a7610c88565b5b600082015167ffffffffffffffff8111156112c6576112c5610c8d565b5b6112d284828501611264565b91505092915050565b60006060820190506112f06000830186611054565b6112fd6020830185611073565b818103604083015261130f81846110c8565b9050949350505050565b61132281610f69565b82525050565b600060a08201905061133d6000830188611054565b61134a6020830187611073565b6113576040830186611054565b6113646060830185611319565b818103608083015261137681846110c8565b90509695505050505050565b60006060820190506113976000830186611054565b6113a46020830185610c54565b81810360408301526113b681846110c8565b9050949350505050565b6000815190506113cf81610cc4565b92915050565b6000602082840312156113eb576113ea610c88565b5b60006113f9848285016113c0565b91505092915050565b60006020820190506114176000830184611054565b92915050565b600061142882611179565b9050919050565b6114388161141d565b82525050565b6000819050919050565b600060ff82169050919050565b600061147061146b6114668461143e565b61114d565b611448565b9050919050565b61148081611455565b82525050565b600081519050919050565b600082825260208201905092915050565b60006114ad82611486565b6114b78185611491565b93506114c781856020860161109e565b6114d081610d27565b840191505092915050565b60006080820190506114f0600083018761142f565b6114fd6020830186611477565b818103604083015261150f81856114a2565b9050818103606083015261152381846114a2565b90509594505050505056fea26469706673582212201ea8cecda05b6ad099d4e4ccc018e9e46a1159a5ad21c951cc8d605e8acfc8bd64736f6c63430008110033",
  "linkReferences": {},
  "deployedLinkReferences": {}
}