{
  "_format": "hh-sol-artifact-1",
  "contractName": "MaticBridgedSuperToken",
  "sourceName": "contracts/MaticBridgedSuperToken.sol",
  "abi": [
    {
      "inputs": [
        {
          "internalType": "address",
          "name": "childChainManager_",
          "type": "address"
        }
      ],
      "stateMutability": "nonpayable",
      "type": "constructor"
    },
    {
      "inputs": [],
      "name": "Initialized",
      "type": "error"
    },
    {
      "inputs": [],
      "name": "ZeroAddress",
      "type": "error"
    },
    {
      "anonymous": false,
      "inputs": [
        {
          "indexed": false,
          "internalType": "address",
          "name": "newAddress",
          "type": "address"
        }
      ],
      "name": "ChildChainManagerChanged",
      "type": "event"
    },
    {
      "stateMutability": "payable",
      "type": "fallback"
    },
    {
      "inputs": [],
      "name": "childChainManager",
      "outputs": [
        {
          "internalType": "address",
          "name": "",
          "type": "address"
        }
      ],
      "stateMutability": "view",
      "type": "function"
    },
    {
      "inputs": [
        {
          "internalType": "address",
          "name": "user",
          "type": "address"
        },
        {
          "internalType": "bytes",
          "name": "depositData",
          "type": "bytes"
        }
      ],
      "name": "deposit",
      "outputs": [],
      "stateMutability": "nonpayable",
      "type": "function"
    },
    {
      "inputs": [
        {
          "internalType": "address",
          "name": "factory",
          "type": "address"
        },
        {
          "internalType": "string",
          "name": "name",
          "type": "string"
        },
        {
          "internalType": "string",
          "name": "symbol",
          "type": "string"
        }
      ],
      "name": "initialize",
      "outputs": [],
      "stateMutability": "nonpayable",
      "type": "function"
    },
    {
      "inputs": [
        {
          "internalType": "address",
          "name": "initialAddress",
          "type": "address"
        }
      ],
      "name": "initializeProxy",
      "outputs": [],
      "stateMutability": "nonpayable",
      "type": "function"
    },
    {
      "inputs": [
        {
          "internalType": "address",
          "name": "newChildChainManager",
          "type": "address"
        }
      ],
      "name": "updateChildChainManager",
      "outputs": [],
      "stateMutability": "nonpayable",
      "type": "function"
    },
    {
      "inputs": [
        {
          "internalType": "uint256",
          "name": "amount",
          "type": "uint256"
        }
      ],
      "name": "withdraw",
      "outputs": [],
      "stateMutability": "nonpayable",
      "type": "function"
    },
    {
      "stateMutability": "payable",
      "type": "receive"
    }
  ],
  "bytecode": "0x60806040523480156200001157600080fd5b506040516200109a3803806200109a8339818101604052810190620000379190620000e9565b80602060006101000a81548173ffffffffffffffffffffffffffffffffffffffff021916908373ffffffffffffffffffffffffffffffffffffffff160217905550506200011b565b600080fd5b600073ffffffffffffffffffffffffffffffffffffffff82169050919050565b6000620000b18262000084565b9050919050565b620000c381620000a4565b8114620000cf57600080fd5b50565b600081519050620000e381620000b8565b92915050565b6000602082840312156200010257620001016200007f565b5b60006200011284828501620000d2565b91505092915050565b610f6f806200012b6000396000f3fe6080604052600436106100595760003560e01c80632e1a7d4d14610072578063445a67971461009b5780634a0687ef146100c457806390657147146100ed578063c8291d8414610116578063cf2c52cb1461014157610068565b366100685761006661016a565b005b61007061016a565b005b34801561007e57600080fd5b5061009960048036038101906100949190610826565b610184565b005b3480156100a757600080fd5b506100c260048036038101906100bd91906108b1565b610243565b005b3480156100d057600080fd5b506100eb60048036038101906100e691906108b1565b610414565b005b3480156100f957600080fd5b50610114600480360381019061010f9190610a24565b61050d565b005b34801561012257600080fd5b5061012b61051d565b6040516101389190610abe565b60405180910390f35b34801561014d57600080fd5b5061016860048036038101906101639190610b39565b610543565b005b6101726106a8565b61018261017d6106aa565b6106d3565b565b3073ffffffffffffffffffffffffffffffffffffffff16639d8767413383600067ffffffffffffffff8111156101bd576101bc6108f9565b5b6040519080825280601f01601f1916602001820160405280156101ef5781602001600182028036833780820191505090505b506040518463ffffffff1660e01b815260040161020e93929190610c27565b600060405180830381600087803b15801561022857600080fd5b505af115801561023c573d6000803e3d6000fd5b5050505050565b60003073ffffffffffffffffffffffffffffffffffffffff166320bc44256040518163ffffffff1660e01b8152600401602060405180830381865afa158015610290573d6000803e3d6000fd5b505050506040513d601f19601f820116820180604052508101906102b49190610c7a565b905060008173ffffffffffffffffffffffffffffffffffffffff1663289b3c0d6040518163ffffffff1660e01b8152600401602060405180830381865afa158015610303573d6000803e3d6000fd5b505050506040513d601f19601f820116820180604052508101906103279190610ce5565b90508073ffffffffffffffffffffffffffffffffffffffff163373ffffffffffffffffffffffffffffffffffffffff1614610397576040517f08c379a000000000000000000000000000000000000000000000000000000000815260040161038e90610d6f565b60405180910390fd5b82602060006101000a81548173ffffffffffffffffffffffffffffffffffffffff021916908373ffffffffffffffffffffffffffffffffffffffff1602179055507f88ba5221dde9ab86adbd4dee937ed51febc94c1052c203da3aabe4034a9273f5836040516104079190610abe565b60405180910390a1505050565b600073ffffffffffffffffffffffffffffffffffffffff168173ffffffffffffffffffffffffffffffffffffffff160361047a576040517fd92e233d00000000000000000000000000000000000000000000000000000000815260040160405180910390fd5b600073ffffffffffffffffffffffffffffffffffffffff1661049a6106aa565b73ffffffffffffffffffffffffffffffffffffffff16146104e7576040517f5daa87a000000000000000000000000000000000000000000000000000000000815260040160405180910390fd5b807f360894a13ba1a3210667c828492db98dca3e2076cc3735a920a3ca505d382bbc5550565b6105188383836106f9565b505050565b602060009054906101000a900473ffffffffffffffffffffffffffffffffffffffff1681565b602060009054906101000a900473ffffffffffffffffffffffffffffffffffffffff1673ffffffffffffffffffffffffffffffffffffffff163373ffffffffffffffffffffffffffffffffffffffff16146105d3576040517f08c379a00000000000000000000000000000000000000000000000000000000081526004016105ca90610ddb565b60405180910390fd5b600082828101906105e49190610826565b90503073ffffffffffffffffffffffffffffffffffffffff1663c68d42838583600067ffffffffffffffff81111561061f5761061e6108f9565b5b6040519080825280601f01601f1916602001820160405280156106515781602001600182028036833780820191505090505b506040518463ffffffff1660e01b815260040161067093929190610c27565b600060405180830381600087803b15801561068a57600080fd5b505af115801561069e573d6000803e3d6000fd5b5050505050505050565b565b60007f360894a13ba1a3210667c828492db98dca3e2076cc3735a920a3ca505d382bbc54905090565b3660008037600080366000845af43d6000803e80600081146106f4573d6000f35b3d6000fd5b8273ffffffffffffffffffffffffffffffffffffffff1663d412d344306040518263ffffffff1660e01b81526004016107329190610abe565b600060405180830381600087803b15801561074c57600080fd5b505af1158015610760573d6000803e3d6000fd5b505050503073ffffffffffffffffffffffffffffffffffffffff166342fe09806000601285856040518563ffffffff1660e01b81526004016107a59493929190610ee6565b600060405180830381600087803b1580156107bf57600080fd5b505af11580156107d3573d6000803e3d6000fd5b50505050505050565b6000604051905090565b600080fd5b600080fd5b6000819050919050565b610803816107f0565b811461080e57600080fd5b50565b600081359050610820816107fa565b92915050565b60006020828403121561083c5761083b6107e6565b5b600061084a84828501610811565b91505092915050565b600073ffffffffffffffffffffffffffffffffffffffff82169050919050565b600061087e82610853565b9050919050565b61088e81610873565b811461089957600080fd5b50565b6000813590506108ab81610885565b92915050565b6000602082840312156108c7576108c66107e6565b5b60006108d58482850161089c565b91505092915050565b600080fd5b600080fd5b6000601f19601f8301169050919050565b7f4e487b7100000000000000000000000000000000000000000000000000000000600052604160045260246000fd5b610931826108e8565b810181811067ffffffffffffffff821117156109505761094f6108f9565b5b80604052505050565b60006109636107dc565b905061096f8282610928565b919050565b600067ffffffffffffffff82111561098f5761098e6108f9565b5b610998826108e8565b9050602081019050919050565b82818337600083830152505050565b60006109c76109c284610974565b610959565b9050828152602081018484840111156109e3576109e26108e3565b5b6109ee8482856109a5565b509392505050565b600082601f830112610a0b57610a0a6108de565b5b8135610a1b8482602086016109b4565b91505092915050565b600080600060608486031215610a3d57610a3c6107e6565b5b6000610a4b8682870161089c565b935050602084013567ffffffffffffffff811115610a6c57610a6b6107eb565b5b610a78868287016109f6565b925050604084013567ffffffffffffffff811115610a9957610a986107eb565b5b610aa5868287016109f6565b9150509250925092565b610ab881610873565b82525050565b6000602082019050610ad36000830184610aaf565b92915050565b600080fd5b600080fd5b60008083601f840112610af957610af86108de565b5b8235905067ffffffffffffffff811115610b1657610b15610ad9565b5b602083019150836001820283011115610b3257610b31610ade565b5b9250929050565b600080600060408486031215610b5257610b516107e6565b5b6000610b608682870161089c565b935050602084013567ffffffffffffffff811115610b8157610b806107eb565b5b610b8d86828701610ae3565b92509250509250925092565b610ba2816107f0565b82525050565b600081519050919050565b600082825260208201905092915050565b60005b83811015610be2578082015181840152602081019050610bc7565b60008484015250505050565b6000610bf982610ba8565b610c038185610bb3565b9350610c13818560208601610bc4565b610c1c816108e8565b840191505092915050565b6000606082019050610c3c6000830186610aaf565b610c496020830185610b99565b8181036040830152610c5b8184610bee565b9050949350505050565b600081519050610c7481610885565b92915050565b600060208284031215610c9057610c8f6107e6565b5b6000610c9e84828501610c65565b91505092915050565b6000610cb282610873565b9050919050565b610cc281610ca7565b8114610ccd57600080fd5b50565b600081519050610cdf81610cb9565b92915050565b600060208284031215610cfb57610cfa6107e6565b5b6000610d0984828501610cd0565b91505092915050565b600082825260208201905092915050565b7f4d4253543a206f6e6c7920676f7665726e616e636520616c6c6f776564000000600082015250565b6000610d59601d83610d12565b9150610d6482610d23565b602082019050919050565b60006020820190508181036000830152610d8881610d4c565b9050919050565b7f4d4253543a206e6f207065726d697373696f6e20746f206465706f7369740000600082015250565b6000610dc5601e83610d12565b9150610dd082610d8f565b602082019050919050565b60006020820190508181036000830152610df481610db8565b9050919050565b6000819050919050565b6000610e20610e1b610e1684610853565b610dfb565b610853565b9050919050565b6000610e3282610e05565b9050919050565b6000610e4482610e27565b9050919050565b610e5481610e39565b82525050565b6000819050919050565b600060ff82169050919050565b6000610e8c610e87610e8284610e5a565b610dfb565b610e64565b9050919050565b610e9c81610e71565b82525050565b600081519050919050565b6000610eb882610ea2565b610ec28185610d12565b9350610ed2818560208601610bc4565b610edb816108e8565b840191505092915050565b6000608082019050610efb6000830187610e4b565b610f086020830186610e93565b8181036040830152610f1a8185610ead565b90508181036060830152610f2e8184610ead565b90509594505050505056fea2646970667358221220c0b0af7984e5a3223370cccbf897c15318666998d1b993d6f02ba8c0a52f710164736f6c63430008110033",
  "linkReferences": {},
  "deployedLinkReferences": {}
}