{
  "_format": "hh-sol-artifact-1",
  "contractName": "MintableSuperToken",
  "sourceName": "contracts/MintableSuperToken.sol",
  "abi": [
    {
      "inputs": [],
      "name": "Initialized",
      "type": "error"
    },
    {
      "inputs": [],
      "name": "ZeroAddress",
      "type": "error"
    },
    {
      "anonymous": false,
      "inputs": [
        {
          "indexed": true,
          "internalType": "address",
          "name": "previousOwner",
          "type": "address"
        },
        {
          "indexed": true,
          "internalType": "address",
          "name": "newOwner",
          "type": "address"
        }
      ],
      "name": "OwnershipTransferred",
      "type": "event"
    },
    {
      "stateMutability": "payable",
      "type": "fallback"
    },
    {
      "inputs": [
        {
          "internalType": "address",
          "name": "factory",
          "type": "address"
        },
        {
          "internalType": "string",
          "name": "name",
          "type": "string"
        },
        {
          "internalType": "string",
          "name": "symbol",
          "type": "string"
        }
      ],
      "name": "initialize",
      "outputs": [],
      "stateMutability": "nonpayable",
      "type": "function"
    },
    {
      "inputs": [
        {
          "internalType": "address",
          "name": "initialAddress",
          "type": "address"
        }
      ],
      "name": "initializeProxy",
      "outputs": [],
      "stateMutability": "nonpayable",
      "type": "function"
    },
    {
      "inputs": [
        {
          "internalType": "address",
          "name": "receiver",
          "type": "address"
        },
        {
          "internalType": "uint256",
          "name": "amount",
          "type": "uint256"
        },
        {
          "internalType": "bytes",
          "name": "userData",
          "type": "bytes"
        }
      ],
      "name": "mint",
      "outputs": [],
      "stateMutability": "nonpayable",
      "type": "function"
    },
    {
      "inputs": [],
      "name": "owner",
      "outputs": [
        {
          "internalType": "address",
          "name": "",
          "type": "address"
        }
      ],
      "stateMutability": "view",
      "type": "function"
    },
    {
      "inputs": [],
      "name": "renounceOwnership",
      "outputs": [],
      "stateMutability": "nonpayable",
      "type": "function"
    },
    {
      "inputs": [
        {
          "internalType": "address",
          "name": "newOwner",
          "type": "address"
        }
      ],
      "name": "transferOwnership",
      "outputs": [],
      "stateMutability": "nonpayable",
      "type": "function"
    },
    {
      "stateMutability": "payable",
      "type": "receive"
    }
  ],
  "bytecode": "0x608060405234801561001057600080fd5b5061002d61002261003260201b60201c565b61003a60201b60201c565b610100565b600033905090565b6000602060009054906101000a900473ffffffffffffffffffffffffffffffffffffffff16905081602060006101000a81548173ffffffffffffffffffffffffffffffffffffffff021916908373ffffffffffffffffffffffffffffffffffffffff1602179055508173ffffffffffffffffffffffffffffffffffffffff168173ffffffffffffffffffffffffffffffffffffffff167f8be0079c531659141344cd1fd0a4f28419497f9722a3daafe3b4186f6b6457e060405160405180910390a35050565b610d778061010f6000396000f3fe6080604052600436106100595760003560e01c80634a0687ef14610072578063715018a61461009b5780638da5cb5b146100b257806390657147146100dd57806394d008ef14610106578063f2fde38b1461012f57610068565b3661006857610066610158565b005b610070610158565b005b34801561007e57600080fd5b50610099600480360381019061009491906106ba565b610172565b005b3480156100a757600080fd5b506100b061026b565b005b3480156100be57600080fd5b506100c761027f565b6040516100d491906106f6565b60405180910390f35b3480156100e957600080fd5b5061010460048036038101906100ff9190610857565b6102a9565b005b34801561011257600080fd5b5061012d600480360381019061012891906109b9565b6102b9565b005b34801561013b57600080fd5b50610156600480360381019061015191906106ba565b6102d1565b005b610160610354565b61017061016b610356565b61037f565b565b600073ffffffffffffffffffffffffffffffffffffffff168173ffffffffffffffffffffffffffffffffffffffff16036101d8576040517fd92e233d00000000000000000000000000000000000000000000000000000000815260040160405180910390fd5b600073ffffffffffffffffffffffffffffffffffffffff166101f8610356565b73ffffffffffffffffffffffffffffffffffffffff1614610245576040517f5daa87a000000000000000000000000000000000000000000000000000000000815260040160405180910390fd5b807f360894a13ba1a3210667c828492db98dca3e2076cc3735a920a3ca505d382bbc5550565b6102736103a5565b61027d6000610423565b565b6000602060009054906101000a900473ffffffffffffffffffffffffffffffffffffffff16905090565b6102b48383836104e9565b505050565b6102c16103a5565b6102cc8383836105cc565b505050565b6102d96103a5565b600073ffffffffffffffffffffffffffffffffffffffff168173ffffffffffffffffffffffffffffffffffffffff1603610348576040517f08c379a000000000000000000000000000000000000000000000000000000000815260040161033f90610aab565b60405180910390fd5b61035181610423565b50565b565b60007f360894a13ba1a3210667c828492db98dca3e2076cc3735a920a3ca505d382bbc54905090565b3660008037600080366000845af43d6000803e80600081146103a0573d6000f35b3d6000fd5b6103ad610640565b73ffffffffffffffffffffffffffffffffffffffff166103cb61027f565b73ffffffffffffffffffffffffffffffffffffffff1614610421576040517f08c379a000000000000000000000000000000000000000000000000000000000815260040161041890610b17565b60405180910390fd5b565b6000602060009054906101000a900473ffffffffffffffffffffffffffffffffffffffff16905081602060006101000a81548173ffffffffffffffffffffffffffffffffffffffff021916908373ffffffffffffffffffffffffffffffffffffffff1602179055508173ffffffffffffffffffffffffffffffffffffffff168173ffffffffffffffffffffffffffffffffffffffff167f8be0079c531659141344cd1fd0a4f28419497f9722a3daafe3b4186f6b6457e060405160405180910390a35050565b8273ffffffffffffffffffffffffffffffffffffffff1663d412d344306040518263ffffffff1660e01b815260040161052291906106f6565b600060405180830381600087803b15801561053c57600080fd5b505af1158015610550573d6000803e3d6000fd5b505050503073ffffffffffffffffffffffffffffffffffffffff166342fe09806000601285856040518563ffffffff1660e01b81526004016105959493929190610c4c565b600060405180830381600087803b1580156105af57600080fd5b505af11580156105c3573d6000803e3d6000fd5b50505050505050565b3073ffffffffffffffffffffffffffffffffffffffff1663c68d42838484846040518463ffffffff1660e01b815260040161060993929190610d03565b600060405180830381600087803b15801561062357600080fd5b505af1158015610637573d6000803e3d6000fd5b50505050505050565b600033905090565b6000604051905090565b600080fd5b600080fd5b600073ffffffffffffffffffffffffffffffffffffffff82169050919050565b60006106878261065c565b9050919050565b6106978161067c565b81146106a257600080fd5b50565b6000813590506106b48161068e565b92915050565b6000602082840312156106d0576106cf610652565b5b60006106de848285016106a5565b91505092915050565b6106f08161067c565b82525050565b600060208201905061070b60008301846106e7565b92915050565b600080fd5b600080fd5b6000601f19601f8301169050919050565b7f4e487b7100000000000000000000000000000000000000000000000000000000600052604160045260246000fd5b6107648261071b565b810181811067ffffffffffffffff821117156107835761078261072c565b5b80604052505050565b6000610796610648565b90506107a2828261075b565b919050565b600067ffffffffffffffff8211156107c2576107c161072c565b5b6107cb8261071b565b9050602081019050919050565b82818337600083830152505050565b60006107fa6107f5846107a7565b61078c565b90508281526020810184848401111561081657610815610716565b5b6108218482856107d8565b509392505050565b600082601f83011261083e5761083d610711565b5b813561084e8482602086016107e7565b91505092915050565b6000806000606084860312156108705761086f610652565b5b600061087e868287016106a5565b935050602084013567ffffffffffffffff81111561089f5761089e610657565b5b6108ab86828701610829565b925050604084013567ffffffffffffffff8111156108cc576108cb610657565b5b6108d886828701610829565b9150509250925092565b6000819050919050565b6108f5816108e2565b811461090057600080fd5b50565b600081359050610912816108ec565b92915050565b600067ffffffffffffffff8211156109335761093261072c565b5b61093c8261071b565b9050602081019050919050565b600061095c61095784610918565b61078c565b90508281526020810184848401111561097857610977610716565b5b6109838482856107d8565b509392505050565b600082601f8301126109a05761099f610711565b5b81356109b0848260208601610949565b91505092915050565b6000806000606084860312156109d2576109d1610652565b5b60006109e0868287016106a5565b93505060206109f186828701610903565b925050604084013567ffffffffffffffff811115610a1257610a11610657565b5b610a1e8682870161098b565b9150509250925092565b600082825260208201905092915050565b7f4f776e61626c653a206e6577206f776e657220697320746865207a65726f206160008201527f6464726573730000000000000000000000000000000000000000000000000000602082015250565b6000610a95602683610a28565b9150610aa082610a39565b604082019050919050565b60006020820190508181036000830152610ac481610a88565b9050919050565b7f4f776e61626c653a2063616c6c6572206973206e6f7420746865206f776e6572600082015250565b6000610b01602083610a28565b9150610b0c82610acb565b602082019050919050565b60006020820190508181036000830152610b3081610af4565b9050919050565b6000819050919050565b6000610b5c610b57610b528461065c565b610b37565b61065c565b9050919050565b6000610b6e82610b41565b9050919050565b6000610b8082610b63565b9050919050565b610b9081610b75565b82525050565b6000819050919050565b600060ff82169050919050565b6000610bc8610bc3610bbe84610b96565b610b37565b610ba0565b9050919050565b610bd881610bad565b82525050565b600081519050919050565b60005b83811015610c07578082015181840152602081019050610bec565b60008484015250505050565b6000610c1e82610bde565b610c288185610a28565b9350610c38818560208601610be9565b610c418161071b565b840191505092915050565b6000608082019050610c616000830187610b87565b610c6e6020830186610bcf565b8181036040830152610c808185610c13565b90508181036060830152610c948184610c13565b905095945050505050565b610ca8816108e2565b82525050565b600081519050919050565b600082825260208201905092915050565b6000610cd582610cae565b610cdf8185610cb9565b9350610cef818560208601610be9565b610cf88161071b565b840191505092915050565b6000606082019050610d1860008301866106e7565b610d256020830185610c9f565b8181036040830152610d378184610cca565b905094935050505056fea2646970667358221220ae17b96d637384963ff2c8ec72078b30710c25716cc36c8504e284336f7431ed64736f6c63430008110033",
  "linkReferences": {},
  "deployedLinkReferences": {}
}